:020000022000DC
:1060000000000120756302005D6302005F6302000F
:106010006163020063630200656302000000000028
:1060200000000000000000000000000067630200A4
:1060300069630200000000006B6302006D630200F0
:10604000559A02006F630200659E02006F630200B2
:106050006F6302006F630200199D02006F6302000C
:106060006F6302006F6302006F6302006F630200E0
:106070006F6302008D9F02006F6302006F63020076
:106080006F630200497402006F6302006F630200D5
:106090006F6302006F630200D12F03006F63020081
:1060A0006F6302006F6302006F6302006F630200A0
:1060B0006F6302006F630200000000000000000038
:1060C0006F6302006F6302006F6302006F63020080
:1060D0006F6302006F6302006F6302000000000044
:1060E00000000000000000000000000000000000B0
:1060F00000000000000000000000000000000000A0
:10610000000000000000000000000000000000008F
:10611000000000000000000000000000000000007F
:10612000000000000000000000000000000000006F
:10613000000000000000000000000000000000005F
:10614000000000000000000000000000000000004F
:10615000000000000000000000000000000000003F
:10616000000000000000000000000000000000002F
:10617000000000000000000000000000000000001F
:10618000000000000000000000000000000000000F
:1061900000000000000000000000000000000000FF
:1061A00000000000000000000000000000000000EF
:1061B00000000000000000000000000000000000DF
:1061C00000000000000000000000000000000000CF
:1061D00000000000000000000000000000000000BF
:1061E00000000000000000000000000000000000AF
:1061F000000000000000000000000000000000009F
:10620000354936480A1A02D0072291438D4634494F
:1062100034480A1A06D00722914381F309880222E2
:1062200082F3148830483149314A00F044F831484B
:106230003149324A00F03FF831483249324A00F0E1
:106240003AF832483249334A00F035F83248334997
:10625000334A00F030F833483349344A00F02BF821
:1062600033483449344A00F026F83448344900228F
:1062700000F02CF833483449002200F027F8334866
:106280003349091A082902DB002202604160314AC1
:1062900090471F481F49884205D00268043003B464
:1062A000904703BCF7E700208646EC46002000211B
:1062B000294A9047FEE7884207D0521A05D0037852
:1062C00001300B700131013AF9D17047884202D098
:1062D00002700130FAE770470000012000E0002062
:1062E0000000012000000120E8C703006422002014
:1062F000B4230020D0630200D06302004C7003007E
:10630000E8C70300642200206422002058720300C2
:106310005872030058720300587203005872030049
:10632000587203005872030058720300E8C7030054
:1063300038C90300B4230020B4230020B423002074
:10634000703E0020703E0020703E0020703E002015
:10635000705E00209D6302007DCA0200FEE7FEE73A
:10636000FEE7FEE7FEE7FEE7FEE7FEE7FEE7FEE705
:1063700000F002B8FFF7FCBF0F484FF00701884359
:1063800085460E4880470E48016841F4700101605F
:10639000BFF34F8FBFF36F8FFFF732BF09480A4932
:1063A0000A4A884207D0521A05D0037801300B7090
:1063B0000131013AF9D17047000001205DCE0200A1
:1063C00088ED00E044720300502200206422002087
:1063D000022004F0DBBA00002DE9F04780460D46AC
:1063E00004F0F4FA0328044610D8012D10D0022D31
:1063F00030D05DB91A4800F0AFFD1A4B04EB4402EF
:1064000013449D78184B1B5DAB4219D0BDE8F08753
:10641000144E00EB4003F218F55C5378470053B17B
:10642000DFF84C900E484A464FF4804100F066FD7C
:1064300008B989F8008027443E440B4BB2781A55BE
:10644000002DE3D0094B1B68002BDFD02846BDE8A8
:10645000F047184700EB4004024804446578EFE732
:1064600088220020B6230020D1230020CC23002046
:10647000B423002000780221FFF7AEBF08B5094B16
:106480001B7853B1002004F057FA012004F054FAAD
:10649000BDE80840032004F04FBABDE8084004F00E
:1064A00057BA00BFB5230020F8B57A4C23780546CB
:1064B0001BB100232370FFF7E1FF172D00F2878047
:1064C000DFE805F00C1717425364757F878C878CC3
:1064D000949999999999C3C8D0D8E3E3FFF7CEFF6F
:1064E0006D4800F039FD6D4B002204461A702046BD
:1064F000F8BD002004F006FAF0B1002004F01CFA08
:10650000022D0CBF4FF4E1644FF47A64634B1D70AD
:1065100000254FF400464FF47A7029464FF4FA6292
:106520000023E4FB06010CF025FF2A460146BDE8E6
:10653000F840594800F0E2BC04F0F2F9022D0CBF1B
:10654000C8244FF4C874E1E7002004F0DBF940B13F
:10655000002004F0F1F94FF44874504B03221A70F4
:10656000D6E704F0DDF9C824F7E7002004F0CAF903
:1065700038B1002004F0E0F94FF47A64474B04226C
:10658000EDE704F0CDF94FF4C874F7E7002004F00C
:10659000B9F948B1002004F0CFF9404B05221A7038
:1065A00040F6CD410022C2E704F0BAF9F5E7002039
:1065B00004F0ECF9394B06221A70002240F26661B1
:1065C000B5E7002004F0ACF9344B07221A70002420
:1065D0008DE70120207004F0D9F9EEE7012020704A
:1065E00004F0D4F900224FF40051A0E704F0BFF901
:1065F0002A4B0C22EAE72A482A4E00F0ADFCD5F1DE
:10660000110504461CD0D8B9012D13D0C82045432C
:1066100021464FF400474FF47A704FF4FA6200239A
:10662000C5FB07010CF0A6FE224601461C4800F0FF
:1066300065FC0446022004F073F90123337056E729
:10664000022004F079F90023F8E7FFF717FF134B56
:106650001222BBE7FFF712FF002004F061F90F4B95
:106660001322B3E7FFF70AFF012004F059F90B4B9F
:106670001422ABE7FFF702FF002004F051F90120DC
:1066800004F04EF9054B1522A0E704F070F9034B16
:106690001D709CE7C8230020A8220020D0230020E2
:1066A00068220020B5230020044B1B68DB0703D5BC
:1066B000034B1878FFF7F8BE704700BFC4230020D3
:1066C000D023002010B5002914BF0324002404F0B7
:1066D0008FF9800000F1A040D0F8002722F440326A
:1066E000C0F80027D0F8003743EA0443C0F8003769
:1066F000002010BD032801D804F05AB900207047CB
:10670000044B1B6813F0010301D0FFF7CDBE184600
:10671000704700BFC423002038B51C4B18601C4BC9
:1067200010F00204054619601AD01A4B1A480E22BE
:106730001A700F22DA7010229A7111225A720421F3
:1067400040F2333200F048FA044648B900F09CFAAF
:10675000044628B90146114A114800F0BDFB044621
:10676000EB0711D5012004F049F96CB921460D4A17
:106770000D4800F0B1FB044630B9BDE838400B4A83
:106780000B48012100F0A8BB204638BDC4230020DF
:10679000CC230020B6230020587203007564020049
:1067A0007C720300A966020080720300D1630200BC
:1067B00078720300032811D8012A0AD101290FD1C8
:1067C00000F10E02D2B20D4B00EB40001A54002033
:1067D00070470129F7D0022904D049B1072070473A
:1067E0000022F8E7054B00EB400018444270EEE74A
:1067F000024B00EB400018448270E8E7B62300200B
:10680000032802D80121FFF75DBF0620704708B5B5
:10681000012202210020FFF7CDFF08B1072810D187
:10682000072202210120FFF7C5FF08B1072808D180
:1068300000210A220846FFF7BDFF10B1072808BF54
:10684000002008BD0388102B10B502D0112B1ED0DC
:1068500010BD1A4C2168B1B901220846FFF7AAFF02
:1068600008B1072824D1072202210120FFF7A2FF47
:1068700008B107281CD1042202210020FFF79AFF4B
:1068800008B1072814D1236801332360E0E70B4ADD
:106890001368013B1360002BDAD1FFF7B8FF002823
:1068A000D6D0074B1B68002BD2D0BDE8104018474C
:1068B000034B1B68002BE6D09847E4E7DC2300205D
:1068C000D823002008B50020FFF79AFF08B106285A
:1068D00006D10120FFF794FF10B1062808BF002061
:1068E00008BD00000D4B10B518600C4629B1012001
:1068F000FFF700FF40B102232370094B1B6853B917
:10690000BDE81040FFF783BFFFF7F4FE08B10B238B
:10691000F2E72070F1E7002010BD00BFD82300206F
:10692000DC23002005F0ECBD0021084605F09CBDED
:1069300010F1360F0AD060B148F2165348F21152E6
:1069400010F1380F08BF13461846704748F2145329
:10695000FAE70346F8E708B50846114602F0BAFF21
:10696000002008BD30B5044685B0002002F034FF99
:10697000054678B9201D039005F0B4FA064903983E
:1069800000952B462A4605F009FB05B0BDE83040CE
:10699000FFF7CEBF05B030BD5769020008B504301F
:1069A00005F0ABFA02F044FF002008BD08B5043042
:1069B00005F088FBBDE80840FFF7BABF08B51146EF
:1069C00004301A4605F0A8FABDE80840FFF7B0BF4A
:1069D000C30710B507D4F023054A4008145C2340D0
:1069E0001943115410BD0901C9B20F23F4E700BFC8
:1069F000F023002030B5094B1C78094B196800239F
:106A00009C4202DC0022104630BD11F83350854212
:106A100001EBC302F7D00133F2E700BFE02300200F
:106A20000024002013B504460191FFF7E3FF38B1BD
:106A300043682BB10199204602B0BDE810401847C9
:106A400002B010BD034B044819680022490800F049
:106A500055BA00BFE4230020C822002010B5C0B200
:106A6000FFF7C8FF0446007803F04CF963785A1E1C
:106A700053425341834208D1044BD3E900231343CB
:106A800003D1BDE81040FFF7DDBF10BDE8230020B3
:106A900037B54308374AD35CC2074CBF1B0903F024
:106AA0000F0304460D46042B25D8DFE803F0032628
:106AB0002F3C4000F9B10121FFF78AFF00230DF1BF
:106AC00007008DF8073000F051FB0120A4F12003EE
:106AD000C4F12001284A20FA01F100FA03F30B4324
:106AE000A040D2E9004120430B43C2E900039DF8D6
:106AF000070000F05FFB03B030BD002918BF022182
:106B0000204603B0BDE83040FFF762BF49B1032122
:106B1000FFF75EFF0121204603B0BDE83040FFF7DC
:106B200081BF0121ECE70029E5D10421E8E709B1A3
:106B30000321E5E7FFF74CFF29462046FFF772FFE8
:106B40000DF107008DF8075000F010FB0120A4F1B3
:106B50002003C4F12001084A20FA01F100FA03F3EE
:106B60000B43A040D2E9004124EA000021EA0303DC
:106B7000BBE700BFF0230020E82300202DE9F0410F
:106B8000124E134F00243378A34208DC114BD3E993
:106B90000023134318D0BDE8F041FFF753BF3D6811
:106BA00005EBC40815F8340003F0ACF898F8013090
:106BB0005A1E53425341181A4142414115F83400BC
:106BC000FFF766FF0134DEE7BDE8F081E023002037
:106BD00000240020E8230020092AF7B505460C46CA
:106BE00016463ED902F0C6FFE8B11F4B1F481D6094
:106BF0001F4B204F1C70204B002110221E600CF0F8
:106C0000DEFC1E4B00200021C3E90001013CE4B280
:106C10000326FF2C0DD11A4A1A48002103B0BDE803
:106C2000F04000F059B902F067FF0028DDD003B052
:106C3000F0BD9DF8063015F834008DF8046005EBC2
:106C4000C40223F007038DF8063001A993788DF86C
:106C500005303A4602F098FF013CE4B20028D8D053
:106C6000E5E70720E3E700BF00240020F023002031
:106C7000E02300205D6A0200E4230020E8230020D6
:106C80007D6B02009072030070B5084D084E002421
:106C90002B789C4201D3002070BD3368012113F88A
:106CA000340002F0E9FF0134F2E700BFE0230020E6
:106CB000002400201FB50021039001AA44F2010026
:106CC000CDE9011100F004F805B05DF804FB000007
:106CD00038B572B604F080FA04F0CEF80028FBD183
:106CE000104B114C114D1249E41AE408240444F0ED
:106CF000010004F00DFAD5F8F030DB0700D500BE36
:106D00000C4944F0020004F003FABFF34F8FEA6825
:106D1000094B02F4E0621343EB60BFF34F8F00BFF7
:106D2000FDE700BF3C7103006C71030000ED00E063
:106D300094720300A07203000400FA0510B5D0E9B4
:106D40000243D1E90202A04272EB03032CBF0120EF
:106D5000002010BD08B50A4800F05FFB094AD2E9DF
:106D60000031C018084BD3E9002341F100019042E3
:106D700071EB030303D210F1807041F1000108BDF3
:106D8000E8220020082400208024002037B5054692
:106D90000C460A4801A901F000FB60B1057044608F
:106DA00001A9064801F023FB18B1054800F03AFBA1
:106DB000002003B030BD0420FBE700BF6C2400209E
:106DC000E8220020294B73B51E7804461EB9002620
:106DD000304602B070BD0028F9D0FFF7BBFFD4E900
:106DE00002239042994139D300230DF107008DF819
:106DF000073000F0BBF923692BB94FF0FF324FF099
:106E0000FF33C4E902239DF8070000F0D3F9D4E969
:106E10000530984700250DF107008DF8075000F068
:106E2000A5F92369C3B1D4E90212B2F1FF3F08BF4B
:106E3000B1F1FF3F05D05B1842F10002C4E9023214
:106E400035469DF8070000F0B5F9002DBFD0084881
:106E5000214602F051FBBBE71D46F2E7B3F1FF3FCD
:106E600008BFB2F1FF3FB2D0F1E700BF102400200D
:106E7000BC72030013B5114B114918680190082327
:106E80001048582201F054FA044698B90E4A0F48A7
:106E900001A900F0B3F9044660B90C48012100F0E3
:106EA0009FFA01230A4A0948194600F001FA094BE2
:106EB00001221A70204602B010BD00BFB872030054
:106EC000142400206C240020B56F0200E82200206A
:106ED000FFFF7F001024002030B56AB103684FF037
:106EE000FF344FF0FF355A614A1E5142C3E9024553
:106EF00051411961002030BD0720FCE7F7B5044679
:106F000000250DF1070017460E468DF8075000F0DA
:106F10002DF9D4E90223B3F1FF3F08BFB2F1FF3FDF
:106F200007D1FFF717FF301841F10001C4E9020152
:106F300001259DF8070000F03DF955B12369A761CF
:106F400003B126612146002003B0BDE8F040FFF701
:106F50001DBF284603B0F0BD37B5054600240DF12E
:106F600007008DF8074000F001F9D5E90223B3F1DD
:106F7000FF3F08BFB2F1FF3F1FBF4FF0FF324FF09E
:106F8000FF33C5E9022301249DF8070000F012F940
:106F900034B12946012003B0BDE83040FFF7F6BE0A
:106FA000204603B030BD0000014800F036BA00BFF3
:106FB000E82200202DE9F743064600F019FA40B117
:106FC000624AD2E9003113F1807341F10001C2E954
:106FD00000310021304600F01AFA38B15C4C2368C9
:106FE00023B12068FFF7EEFE002323600121304625
:106FF00000F00DFA20B1FFF7ADFE564BC3E90001DA
:107000005548534C01A901F002FA4FF0FF384FF0F8
:10701000FF39A0B9DFF844814D4D404602F082FAB5
:10702000002800F08580D0E90223B3F1FF3F08BFBC
:10703000B2F1FF3F32D1404602F06EFAEDE703783D
:10704000012B20D0022B08D1444D284602F064FACF
:10705000002877D0C0E90289F7E75BB94168D1E938
:107060000223B3F1FF3F08BFB2F1FF3F02D03B481C
:1070700002F042FA01A9384801F0F4F901A93648B2
:1070800001F0C5F9C5E741682368994202D10023A0
:107090002360EFE7314802F048FAEBE7296891B145
:1070A0002968D1E9020182428B412FD22B68D3E9B2
:1070B0000223B3F1FF3F08BFB2F1FF3F03D02968BD
:1070C000404602F019FA404602F026FAD0E9024999
:1070D0000746FFF73FFE201A69EB0109012879F105
:1070E000000318DBB0F5350F13D3FFF75DFF1C4A23
:1070F00002441C484FF49603002100F0F9F890B9BF
:107100002B6813B9304600F0CBF82F6003B0BDE810
:10711000F0832246EDE71348002100F06EF938466F
:10712000FFF750FE01E00D28F9D000232B6074E733
:10713000074B1B68002BE9D1304603B0BDE8F04394
:1071400000F0B2B8084B01221A7093E7082400201F
:1071500088240020802400206C240020BC720300BE
:10716000FFFFB400E82200201024002070B5EFF3E8
:10717000108672B60C4A946801239CB993600B4B3D
:107180000B4DD3F8801029401160C3F88050D3F81C
:10719000841051604FF0FF32C3F88420047006B9A8
:1071A00062B670BD0370FAE78C24002000E100E0B5
:1071B000FC06FFBD084B9A6810B55AB150B9EFF301
:1071C000108172B6054A1C6814605C68546098604F
:1071D00001B962B610BD00BF8C24002000E100E0C0
:1071E000435882B03BB10023435043580193019B65
:1071F000012002B070471846FBE70000F8B5204BAD
:107200004479204E43F824201F4A204B06EBC40447
:107210009B1A2279DB081B0432B143F002001C499F
:1072200003F076FF0820F8BD02680C88C2F8084514
:1072300090F904508A7804795201002DD2B219DBFA
:1072400014494F1987F8002301226D0904F01F0427
:1072500002FA04F441F82540427906EBC201012408
:1072600046F832000C7143F003000B4903F050FF65
:107270000020D8E7094904F00F040A55ECE700BFE5
:10728000A0240020982400203C7103007C7103009E
:10729000C872030000E100E0EA72030014ED00E0B0
:1072A000036801221A607047036801225A60704720
:1072B00073B501F15005AD000068ADB24FF48034F4
:1072C0008C400026C0F80843C0F84843465101F5F9
:1072D000A8714559019522F07F42019D40F8212077
:1072E000C0F844430BB1C0F8044302B070BD0000C5
:1072F0002DE9F74F0D4622F07F4402684FF48037A6
:1073000005F150068F408046B60002EB8500C2F8BA
:107310004873B6B2C2F80873D2F8041599464FF014
:10732000000BD0F84035C0F8401542F806B05B1AA3
:107330009259009223F07F43012B009A4FEA850A6D
:107340000CD1264B4FF4806043F001039847D8F8E6
:10735000003043F806B09B590193019BD8F8001008
:10736000D1F80465C1F84473A31B23F07F43012BBC
:107370001CD11A4B05F5A875013443F0010341F8FF
:1073800025404FF480609847D8F80030D3F8043592
:107390009E4209D1D8F800300020C3F84473C3F8E6
:1073A000047303B0BDE8F08F0D20FAE78A44C9F1F9
:1073B000FF13CAF84045D1F80405221A013A22F019
:1073C0007F4203F57F439342EED3002AE2D101349A
:1073D000CAF84045D1F804359842DAE70073030053
:1073E00003680222C3F8442309B1C3F80423704799
:1073F00000684FF48271FFF7F3BE4FF4803303FA55
:1074000001F10368C3F84813C3F8081370475031FB
:107410008900006889B2FFF7E3BE0368D3F804056A
:107420007047000090F90430002B09DB5A09012154
:1074300003F01F0301FA03F34032024941F82230FE
:10744000704700BF00E100E0024B034A1B68106870
:10745000184700BFA02400209824002070B5064DD6
:107460000646002455F8043B0BB1304698470134DA
:10747000042CF7D170BD00BFB02400204388033333
:1074800000EB830399420BD382884FF6FF739A4235
:1074900008D0038833B18068431C58425841704774
:1074A0000220704701207047033080B240F2FE3363
:1074B000984230B51FD8134B1A783AB91C895D89A8
:1074C0002C440444A4B2B4F5806F0AD91A7DAAB939
:1074D0009A8BDC8B2244024492B2B2F5806F0DD8B5
:1074E00001220A801446142202FB04335A891044F4
:1074F0005881002030BD48F20860FBE748F2066082
:10750000F8E700BFE42400200B4A0C4953881420FC
:1075100000FB0311CB6833B90420496810700122C5
:10752000074801F067BB07490523137002238B80CE
:10753000012209680023F3E7C8240020E424002086
:1075400050220020AC25002007B5002305490093F8
:10755000054A09680548082301F0B2FA03B05DF84E
:1075600004FB00BFAC250020147303005022002050
:1075700007B5002301460093034A0448082301F09D
:107580009FFA03B05DF804FB0C7303005022002047
:1075900013B500230C4600930146084A084804230B
:1075A00001F08EFA38B9074B142101FB0431012395
:1075B0000B7402B010BD48F20D60FAE708730300C7
:1075C00050220020E424002037B50A480A4B4268C4
:1075D0009C88196853880325033305709BB20020EB
:1075E00000909B0001EB8401044801F069FA03B0AC
:1075F00030BD00BFC8240020AC2500205022002050
:1076000010B50146044800F0C8FE1C2204460021C3
:107610000BF0D5FF204610BD9825002068B1026808
:10762000084B9A4209D14068074B984207D0013372
:10763000984214BF032001207047032070470020A8
:10764000704700BFDEC0ADDEFE011EF12DE9F04146
:107650000D460223154F2B80164600F5805100F190
:1076600008044FF001088C420ED2236801330BD07E
:107670002046FFF703FF48B10EB186F800800228CC
:1076800009D14FF480632B80BDE8F081A3683A688C
:10769000934200D93B602B886288033313442B80CC
:1076A0006388033304EB8304DDE700BFDC240020A0
:1076B00038B5144B14220D4602FB00302B68446889
:1076C00004F58051A3B15C88033403EB84048C423D
:1076D00015D22368013312D02046FFF7CFFE0128D0
:1076E00008D002280BD00028F1D12C60012038BD31
:1076F0000834ECE76388033304EB8304E7E70020F6
:10770000F5E700BFE4240020426873B504460D4647
:107710006AB3234BD9688A4229D31B699A4226D877
:1077200012F0030323D11F490089098988421ED121
:107730002068916888421AD11B4841688A4203D95F
:1077400001F580518A420DD381698A420CD901F535
:1077500080518A4208D201222A80B3FA83F040097C
:1077600002B070BD1A46F7E748F20963F5E7002654
:107770002E800196288801A9FFF79AFF30B92B883F
:1077800001339BB2012B2B80F3D9E9E7019B2268DF
:1077900099689142EED16360024B1B892381DFE738
:1077A00050220020C8240020E42400202DE9F843C2
:1077B0001C461D4B1B7806460F46154673B382B315
:1077C0007CB3DFF86C804FF01409A388012B02D939
:1077D00048F2096020E009FB03F318F803302BB9E5
:1077E000A0882146FFF764FF20B92060A3880133F9
:1077F000A380EAE723681EB1998832889142EFD1CD
:107800001FB119883A889142EAD19A68C5E90023E4
:10781000064B1B892B810020BDE8F88348F20160EC
:10782000FAE748F20460F7E7C0240020C8240020EB
:10783000E424002008B5074B5888191DFFF738FFCE
:1078400018B1BDE80840FFF7BFBEBDE80840FFF72C
:107850005BBE00BFC82400202DE9F0479F4FDFF832
:10786000A08288B006463B6823B99D48414600F097
:10787000CEFD38603D6829784B1E052B07D8DFE820
:1078800013F0200074007400060106015E0148F246
:107890000E641422002103A80BF091FE41F61D5343
:1078A0009C4208BF00243B6804941A78023A042AD8
:1078B00000F2FC81DFE812F0DD01E9010B021302A6
:1078C0001A022EB1874B00225A604FF40644E0E7BB
:1078D0002B79032B1CD8DFE803F014022A35824AE7
:1078E0001378022B1AD0137D022B4FF0010317D10E
:1078F00014214B43D1180020D0544868FFF738FEBC
:1079000003E001232B71FFF71FFE002800F0B98070
:10791000744B00225A6048F20D64BAE70023E7E78F
:10792000704A13700023536041F61D54B1E76F494C
:107930006F48002302222B718A800968012201F01E
:1079400059F9E2E76B4B684C5B88684A14214B435A
:10795000E11800262E714D68106815609588486002
:107960000D810221E6549180C8E7B5F814A0AA7DE4
:10797000DFF87491AEB1022AEB8806D9142101FB1D
:107980000A91DA1C088902440A81142202FB0A992E
:10799000C3F57F43B9F80A20FD331344A9F80A3030
:1079A00093E7142303FB0A9318895C6804EB8004B3
:1079B000062A69D8DFE802F0274E36441D5A040033
:1079C00041F61D54AA7DEB88022A06D9142101FB39
:1079D0000A91DA1C088902440A81142202FB0A99DE
:1079E000C3F57F43B9F80A20FD331344A9F80A30E0
:1079F0004FE74148414900234360AB690360FFF70B
:107A000083FE00285BD00223AB7500230093042380
:107A1000EA182146364801F053F8002831D048F2E0
:107A20000D64CFE72B69002B14BF03230123AB7533
:107A30000023009305F10C02042304F10801E9E797
:107A40000123AB750022EB8800922A699B0004F1A8
:107A50000C01DFE703290CBF05230623AB750023C8
:107A60000093042305F10802E118D3E70623AB7560
:107A7000224B1988204B5868FFF78AFD04460028DE
:107A8000A0D108B0BDE8F08748F20E649AE7002E56
:107A90007FF41BAF2B79012B34D0022B3FF444AF82
:107AA000002B7FF4F4AE02232B710DF10A01EB6879
:107AB000039303A8CDE90466FFF726FE10B948F248
:107AC0000964E6E60498BDF80A108388EB80038811
:107AD0002B81FFF75DFD044627E000BFE024002076
:107AE00098250020C0240020E4240020AC2500209C
:107AF00050220020C8240020A4240020B825002003
:107B0000D82400207B4B03AA3146A81DFFF74EFE68
:107B1000784B044668B999880498FFF739FD044604
:107B200048F209639C423FF4FFAE002C7FF4B1AEF3
:107B3000A7E70822314618460BF041FDF0E7002E7A
:107B40007FF4C3AE6C4B1A7BB2B11E731A78013A44
:107B5000062A3FF69CAE01A151F822F0077C0200F4
:107B60002D7C02004B7C0200517C02008F780200C9
:107B7000577C0200697C02001A78072AE6D801A126
:107B800051F822F0A57B02004D7B02004D7B0200E4
:107B9000CB7B0200DF7B0200037C0200037C02003F
:107BA000C77B02001A89554901321A8100225A8086
:107BB0001A730A78B2FA82F252099A720A7DB2FAFC
:107BC00082F25209DA72012207E04D4958688A8828
:107BD0004088033202448A8002221A70B6E75C8829
:107BE000464A4749142505FB04220868546850603A
:107BF0008888108102200C60888000211174062280
:107C0000EBE70722E9E79A7A32B9DA7A8AB90022F1
:107C10001A705A805A6087E6384900229A72CA68F8
:107C2000002AF2D1097C0029EFD05A80FFF702FE2A
:107C300051E70022DA72314A116A0029E7D192F83D
:107C40002420002AE3D00122EFE7FFF7BDFC42E742
:107C5000FFF75AFC3FE75A88284B142101FB0233F7
:107C60005868FFF785FC36E700225A60FFF76CFC86
:107C700031E701228DF80C201A89ADF818209A8876
:107C8000DB68ADF81A20059310E002228DF80C2075
:107C90001A89ADF818209A88ADF81A20DA689B7D09
:107CA00005929A1F534253418DF81C3003A8FFF7E9
:107CB000D5FB0026414613483E6000F0D3FB124836
:107CC000012100F089FC00287FF4CDADD9E6032224
:107CD0008DF80C20DA88ADF818201A89D0E7042234
:107CE0008DF80C20DB88ADF81830DFE705238DF820
:107CF0000C30DBE7BC250020C8240020E424002051
:107D0000AC25002098250020A82500204068FFF71A
:107D1000A3BD000008B50548012100F045FC18B9D5
:107D2000BDE80840FFF798BD08BD00BFA8250020AA
:107D30002DE9F3419846374B1B7806460D46002B3C
:107D40005CD000295DD009884FF6FF7399425BD063
:107D50006B88002B58D06B689B0758D14AB92F8984
:107D60000DF102013846FFF79FFB30B102B0BDE8CC
:107D7000F08113885788ADF8023001A8FFF740FC66
:107D8000044660B9BDF80220234B142101FB0233E5
:107D900058890338C01B588148F20760E6E780F82D
:107DA000008000238375BDF8023083826B68036115
:107DB00001211A4800F004FC2B882381B8F1030F3D
:107DC0006B88A38004BF0423A3754FF0000508BF90
:107DD0003368E06008BFA3611148E780658101A9AD
:107DE00000F005FB36B1E36833600E4B75601B890C
:107DF000B5723381FFF78EFF0020B7E748F20160CC
:107E0000B4E748F20460B1E748F20360AEE748F235
:107E10000260ABE7C0240020E4240020DC24002022
:107E200098250020C824002008B5034607480268AA
:107E3000042A08D00168064A42F82130012100F0E6
:107E4000BFFB002008BD48F20B60FBE7B425002013
:107E5000B02400202DE9F04FDFF8208289B01422F1
:107E6000002103A80BF0ABFB98F8003003F0FF02F1
:107E700000923BB103A8FFF7F1FA0027384609B09A
:107E8000BDE8F08F08F1040000F0B2FB0028F4D147
:107E9000009BDFF8ECA1D3F8F83F5C1C08BF4FF063
:107EA00010234FF0805208BF5B6911695269581C5A
:107EB00008BF02FB01F3CAF810306949A3F540532B
:107EC00000225046CAF80C3000F0C8FD07460028D2
:107ED000D4D11C2363496448DFF8A8B18C2200F098
:107EE00027FA0323B9463D4601933C46DAF80C6075
:107EF0004E443046FFF792FB012867D0032817D085
:107F000000283DD159494FF0140C0CFB04FC01EB47
:107F10000C0201F80C0056600CF110020CF1080C78
:107F20000A4430466144FFF791FB45F002054AE000
:107F30003268531C02D04E4B9A4239D1321D06F59D
:107F400080511068013033D104329142F9D1DBF80D
:107F500000203AB902220123CBF80060ABF80420DC
:107F600000930BE014226243404B0220991898546E
:107F7000404A4E60548001340881A4B245F00105A6
:107F800009F58059B9F5405FB0D1019B012B98BF2D
:107F90000025EDB2022D03D0062D36D0002D3ED1A6
:107FA000002388F8003048F20A67C8F8043065E713
:107FB000019B2E495A1E93B21422624388180193E2
:107FC0004660032088540134A4B2D9E7009B6BB10A
:107FD000264B14226243991802209854DBF80020A3
:107FE0004A60244A088154800134A4B20022224904
:107FF000CBF800603046FFF729FBBBF80420022ACB
:108000000CBF042208221543BAE7012388F8003088
:1080100003A80023C8F80430FFF720FA2EE702A8CF
:10802000FFF7EEFAC8B10123013D03700A2D09D80C
:10803000DFE805F006080608070807080F110F001B
:108040000023037102A9084800F0D1F9FFF762FE8E
:1080500014E70323F5E70223F3E748F207670DE788
:10806000107503000C25002098250020E424002032
:10807000DEC0ADDEC8240020B0250020C0240020D2
:1080800050220020AC25002073B50D460446C8B12F
:10809000C1B10DF10601FFF737FBB0B1BDF80630F5
:1080A0000B486668142202FB030001210C3000F02B
:1080B00087FA63682E600C336B600123A372002083
:1080C00002B070BD48F20460FAE748F20960F7E7D1
:1080D000E424002013B50446A8B10DF10601FFF712
:1080E00013FB98B1BDF806200B4B142101FB0233A2
:1080F000DA6872B1A27A62B1DA680020013ADA6015
:10810000A07202B010BD48F20460FAE748F20960BC
:10811000F7E748F20560F4E7E42400200223002298
:10812000FFF706BE18B103230022FFF701BE48F295
:1081300004607047114B1B7813B50446ABB14FF682
:10814000FF73984214D001A8FFF75AFA98B105239B
:10815000037001230371C48001A9094800F047F9A5
:10816000FFF7D8FD002002B010BD48F20160FAE729
:1081700048F20360F7E748F20760F4E7C024002004
:10818000982500200F4B1B7807B5A3B101A8FFF776
:1081900037FA98B10623037001A90B4800F027F9BC
:1081A0000A4B1A780AB101221A73FFF7B3FD0020B7
:1081B00003B05DF804FB48F20160F9E748F207609C
:1081C000F6E700BFC024002098250020C824002026
:1081D00007B5ADF80600ADF804100DF1060001A9D1
:1081E000FFF7E4FA03B05DF804FB07B51346ADF8FA
:1081F00006000A4600200DF10601FFF7D7FA03B08A
:108200005DF804FB07B51346ADF806000A460DF10C
:1082100006000021FFF7CAFA03B05DF804FB20B1A5
:1082200019B103680B600020704748F20460704782
:108230002DE9F84F3C4B1B780446002B6DD00028ED
:108240006ED0DFF8E890122200210BF0B8F903237A
:1082500023804FF0000A4F4614264FF00108D9F84A
:108260000410B9F80AB0B9F808500846FFF7D6F973
:10827000032808BF2388628804BF03F1FF332380EB
:1082800006FB0A735D44DB681344638023899B44C7
:108290006389A4F808B0ADB22B446381C5F580654D
:1082A000A389ADB2AB4238BFA58101F1080501F544
:1082B0008051A94229D92B68013326D02846FFF7DF
:1082C000DDF801280AD0022815D00028F1D1A388B2
:1082D0000133A3800AE04FF0010AC0E7E3880133CD
:1082E000E380E3896A8803331344E3816B880333B3
:1082F00005EB8305DDE7E38884F810804D1BE189F9
:10830000013301EBA501E380E18109F11409BAF120
:10831000000FE0D00020BDE8F88F48F20160FAE7D6
:1083200048F20460F7E700BFC0240020E4240020E6
:1083300010B561B1B2FBF3F403FB1424A4B244B949
:10834000C0E9001484608281C381204610BD0E20E4
:10835000FCE70920FAE782B050E8022FC188B2EBAF
:10836000324F4FF0000317BF92B241EA014142EA97
:10837000014104E04268B2EB324F08BF012340E8FC
:108380000212002AE8D18DF807309DF80730002B43
:108390000CBF1120002002B0704737B550E8013FF4
:1083A0009DB2C48925448489A54228BF2D1B048918
:1083B000A54202BFBFF32F8F002207E0C5EA0305E5
:1083C00040E80154002CE9D14FF001028DF8032060
:1083D0000193019A0A609DF8031001F0FF0321B197
:1083E000006810FA82F003B030BD1846FBE70A8837
:1083F0004B889A4209D150E8012FC2EA024240E874
:108400000123002BF7D1012070470020704737B5BA
:1084100050E8023F1FFAA3F5C488A54202BFBFF38C
:108420002F8F00220DE0C48925448489A54228BFEE
:108430002D1BC3EA054540E80254002CE8D14FF05B
:1084400001028DF803200193019A0A609DF8031040
:1084500001F0FF0321B1006800EB124003B030BD12
:108460001846FBE70A884B889A4209D150E8022F48
:10847000C2EA224240E80223002BF7D101207047D4
:108480000020704701F01F024B090121914000EBD1
:10849000830000F065B84B0910B501F01F040121FD
:1084A000A14000EB830000F04FF8E04000F0010035
:1084B00010BD01F01F0301229A404B0900EB83001D
:1084C000D14300F065B84B0901F01F0150F82300BB
:1084D000C84000F0010070472DE9F0474F1E7F09AA
:1084E00080460E460137002558F8254008EB8509DF
:1084F000E44394FAA4F4B4FA84F44FEA451A202C25
:1085000006D10135AF42EFD834462046BDE8F087AA
:108510005444A642F5D921464046FFF7BCFF002847
:10852000F3D0D9F80040E44394FAA4F4B4FA84F404
:10853000E5E710B5034653E8000F0A4643E8002478
:1085400094F0000FF7D110BD10B5034653E8000FAB
:1085500040EA010243E8002494F0000FF6D110BD78
:1085600010B5034653E8002F42EA010043E8000437
:1085700094F0000FF6D110BD10B5034653E8000F7C
:1085800000EA010243E8002494F0000FF6D110BD88
:1085900010B5034653E8002F02EA010043E8000447
:1085A00094F0000FF6D110BD10B5034653E8000F4C
:1085B00000EB010243E8002494F0000FF6D110BD57
:1085C00010B5034653E8002F02EB010043E8000416
:1085D00094F0000FF6D110BD10B5034653E8002FFC
:1085E000A2EB010043E8000494F0000FF6D110BDA7
:1085F0000121FFF7A9BF0121FFF7B2BF0021FFF75B
:10860000BBBF0021FFF7C4BF10B590B1D0E9012373
:1086100001689B1ADBB20A60013BDBB2FF2B0268E8
:1086200002D10020107110BD11684C1C14600B7039
:10863000F2E70E20F7E737B5054600240DF10700F5
:108640008DF80740FEF792FD2A686B681168994221
:108650000ED9481E106011F8013CEC68298A01FB14
:108660000344AB6811791B1ADBB2994238BF13710E
:108670009DF80700FEF79EFD204603B030BD37B5DC
:10868000054600230DF107000C468DF80730FEF774
:108690006DFD2A681368591C1160E968641A298AFB
:1086A000B4FBF1F41C709DF80700FEF783FD03B0E6
:1086B00030BD826810B504462AB14369016800697B
:1086C00098470023A36010BD0EB403B5039921B1F0
:1086D00004AB01AA019300F077F802B05DF804EB57
:1086E00003B070470A2938B504460D4602D10D2162
:1086F000FFF7F8FFA3682268591CA160D554D4E99C
:1087000001329A4204D32046BDE83840FFF7D1BF7A
:1087100038BD00002DE9F84F9846DDE90A431546BB
:1087200082460F460A464FF00109AA420FD2C145C0
:1087300038BFC14613F0010B01D16CB900240126EA
:10874000B8F1010F1BD908F1FF386E43F8E709F1C2
:108750000109B2FBF5F2E8E79B070ED5B8F1000F6F
:108760000CBF30262026A145E9D2013C31465046B7
:10877000FFF7B8FF002CF6D1E0E72026F3E7B7FBC0
:10878000F6F39D42E1D9DFF83C80B7FBF6F35046A3
:1087900018F8031006FB1377FFF7A4FF3346AB422C
:1087A000B6FBF5F6F1D2BBF1000F02D00CB1A1453A
:1087B00001D3BDE8F88F20215046013CFFF792FF1E
:1087C000F4E700BF257303002DE9F74F0546174670
:1087D0008846002900F03E8118F8011B49B92B7B1F
:1087E000002B00F03781284603B0BDE8F04FFFF7BB
:1087F00060BF252940F0B780002698F800302D2B67
:10880000424608F1010823D0302B24D02B2B25D051
:1088100000242A2B02F1010123D13B681A1D1B6899
:108820003A601C440A4613782E2B26D101324FF0B1
:10883000000A104610F8011BA1F1300CBCF1090F21
:108840001DD80A2303FB0A13A3F1300A0246F0E7FE
:1088500046F00106D1E746F00206CEE746F00406F0
:10886000CBE711F8013CA3F130000928DBD80A223C
:1088700002FB0434303C0A46CBE74FF0000A12F802
:10888000011B01F0FB0068289046F8D0782909D830
:108890006F290CD8632962D022D8252963D05829A2
:1088A00000F0888098F80030002B95D197E7703958
:1088B0000829F7D801A353F821F000BF2F8A02003E
:1088C000A5880200A5880200C5890200A5880200CB
:1088D000A3890200A5880200A5880200B5890200CC
:1088E000642901D06929DDD13A68D2F80090111DC0
:1088F00089EAE9723960A2EBE9724FF0010B092AAB
:1089000035DCD34538BFD3462CB1B9F1000F01DBBC
:10891000720700D5013CB30702D5BAF1000F03D0AE
:10892000F00701D44CBB0024B9F1000F2DDAC9F1D6
:1089300000092D212846FFF7D5FE06F00302022A82
:1089400004D1BAF1000F01D11CBB0024CDE90046CF
:1089500053460A2249462846FFF7DCFEA2E73B6859
:108960001A1D19783A602846FFF7BCFE9AE70A23D9
:108970000BF1010BB2FBF3F2C1E7A345D4D22021E6
:108980002846013CFFF7AEFECCE77107D5D52B2179
:10899000D0E7A345DAD230212846013CFFF7A2FEFA
:1089A000D2E73968CDE900460A1D3A6053460A22EB
:1089B0000968D0E739680A1D3A60CDE90046534698
:1089C0001022F5E73B681A1D3A6016F00106D3F84D
:1089D000009024D1B9F1000F03D048460AF022FEDE
:1089E0000646B4421DD809F1FF3919F8011F0029C4
:1089F0003FF458AF2846FFF775FEF6E728460136E4
:108A0000FFF770FE19F806100029F7D1A642BFF44F
:108A100049AF20212846013CFFF764FEF6E7002617
:108A2000F0E720212846013CFFF75CFED9E73B68D0
:108A30001A1D3A60302128461C68FFF753FE782142
:108A40002846FFF74FFE00220823CDE900322146D9
:108A5000102280E703B0BDE8F08F00BF13B50B46CE
:108A6000114680B9104B1148114AC01A0E23C00894
:108A70000093104B0004104940F0010002F05FFB2E
:108A80000E2002B010BD4BB9074B08480B4AC01A64
:108A9000C0080E2300930004064BECE703601B683C
:108AA00002B0BDE8104018473C710300B4710300E8
:108AB00035730300F17403003A7303006973030014
:108AC0002DE9F743DDF8288088B93E4B3E483F4A00
:108AD000C01AC0080E243E4B009400043D4940F0EB
:108AE000010002F02CFB204603B0BDE8F0834AB938
:108AF000344B3548384AC01AC0080E24344B009411
:108B00000004EBE7D0F800E0BEF1000F09D12D4BD7
:108B10002D48324AC01AC00808242D4B0094000486
:108B2000DCE74BB9274B28482D4AC01AC008092456
:108B3000274B00940004D1E74568D5F80490B3FBB7
:108B4000F9F509FB15354DB11E4B1F48254AC01AD2
:108B5000C00809241E4B00940004BFE78D0709D00C
:108B6000184B1948204AC01AC0081024184B00940A
:108B70000004B3E712F0030F09D0124B12481B4A4E
:108B8000C01AC0081024124B00940004A6E7C56860
:108B9000A9420DD34D1EEC180569AC4208D8CDF89A
:108BA0002880DEF80C40A44603B0BDE8F0436047DF
:108BB000044B05480E4AC01AC0081024044B009408
:108BC00000048BE73C710300B471030035730300AC
:108BD000DE7403003A730300B7730300637303008A
:108BE00076730300BD730300E7730300FF73030094
:108BF00022740300F7B580B92A4B2B482B4AC01AC0
:108C0000C0080E242A4B009400042A4940F00100B9
:108C100002F095FA204603B0F0BDD0F800C0BCF1D8
:108C2000000F09D11F4B2048234AC01AC00808244E
:108C30001F4B00940004E8E74AB91A4B1A481F4A30
:108C4000C01AC00809241A4B00940004DDE74568E7
:108C5000D5F800E00EF1FF350D4209D0114B124856
:108C6000174AC01AC0081024114B00940004CCE726
:108C7000C568A9420CD34D1E0EFB02540569AC42D7
:108C800006D8DCF81040A44603B0BDE8F0406047C9
:108C9000044B05480B4AC01AC0081024044B00942A
:108CA0000004B2E73C710300B471030035730300A4
:108CB000CB7403003A7303006373030076730300FD
:108CC000497403006F74030029DF704728DF704781
:108CD00070B503689E6886B004460D466EB11422D6
:108CE000002168460AF06BFCA3680593237901957F
:108CF0002BB1012B0DD06846B04706B070BD0123E3
:108D00008DF8003023690293E36803936369049349
:108D1000F1E702238DF80030E3681B030293F5E7C7
:108D20000846704700207047024B187A003818BF79
:108D30000120704760260020034B187A0122B0FA08
:108D400080F05A74400970476026002008B510462C
:108D50001A460AF00BFC002008BD000008B51422DA
:108D6000002104480AF02BFC0348FFF7F4FA002026
:108D700008BD00BF602600205026002010B5094C19
:108D8000094B43602046FFF733FC40B90AF006F96F
:108D9000064920741C2306488C22FFF7C9FA0020DC
:108DA00010BD00BF6026002004750300C42500200C
:108DB0005026002038B5234D234C2B7A3BB923494C
:108DC0002348FFF724FB206008B9686038BD022300
:108DD00024682B72237973B1012B24D02046032100
:108DE000FFF776FF00232B726B6018491848BDE827
:108DF0003840FFF737BBD4E90523D21AB2F5805FBC
:108E0000D4E9031028BF4FF480529208012A38BFDA
:108E1000012219441844FFF757FF50B11128DDD142
:108E200001232B72D2E7D4E903031844FFF74EFF66
:108E3000F3E72B7C002BC9D1BDE83840022000F0BD
:108E400009B800BF60260020782600207426002084
:108E50005026002038B5234C237A002B41D0022B1A
:108E600009D1032830D0204B00221B68E2601A7918
:108E70003AB1012A22D0637C7BBBBDE83840FFF7C2
:108E800099BFD3E905128D1AB5F5805F94BF5219C9
:108E900002F580529A619142EDD102284FF0000311
:108EA00008BF19462372104B18BF0D211868FFF731
:108EB0000FFF0E490E48FFF7D5FADCE71A690132B9
:108EC0001A615B699A42E7E7E3680133082B01D82E
:108ED000E360D0E70023E360DFE7BDE838400AF055
:108EE0004DB838BD6026002078260020742600206A
:108EF00050260020831E012B01D8FFF7ABBF70471F
:108F000000F0FD03012B08D1044B00225A74421ECD
:108F1000504250411874FFF74DBF70476026002043
:108F200010B5064C201DFFF763FB28B9637C1BB905
:108F3000BDE81040FFF73EBF10BD00BF6026002017
:108F40002DE9F34180460D460F4801A916461F46FC
:108F5000FFF723FA0446A8B11C2200210AF02FFBD8
:108F60002D0B0123237101A90748C4F80080A760D5
:108F7000E5606661FFF73BFAFFF7D2FF002002B021
:108F8000BDE8F0810420FAE7502600202DE9F743E0
:108F900081468846104801A917461E46FFF7FDF98D
:108FA0000446B0B11C2200210AF009FB00250A9BEF
:108FB000A36001A9C4E9037807482571C4F80090AB
:108FC0006661FFF714FAFFF7ABFF284603B0BDE870
:108FD000F0830420FAE700BF502600202DE9F84F67
:108FE000B0F806A04579D2F800B09DF828900AFBA9
:108FF00005F5043D88460BEB0301A94203F1040487
:1090000088BFA5EB030BB4FBFAF607460AFB164430
:10901000C2F800B04EB9AAEB04055D4528BF5D4615
:10902000BBF1000F04D1BDE8F88F3F68013EF1E7C6
:10903000043408EB06003C442A46B9F1000F0DD079
:109040002146ABEB050B0AF091FADA452E443F6856
:1090500055464FF0000428BF5D46E1E70146204633
:10906000EFE7FFF7D1BAF8B546790146721E05461B
:10907000002393422D6803D30024A64202D8F8BDF2
:109080000133F6E70F682846FFF7F9FA013439464D
:10909000F3E72DE9F843068ACD1C0746FFF7CBFA24
:1090A000043E35440446B5FBF6F5F0B14FF4807349
:1090B000EDB28380C680013D076081464FF0000815
:1090C000A84512D23846FFF7B6FA064648B163798A
:1090D0000133637108F10108C9F800000760814697
:1090E000EEE72046FFF7BFFF34462046BDE8F88391
:1090F00001210430FFF764BA10B5012104460430A1
:10910000FFF76AFAC0B220B92046BDE81040FFF769
:10911000AABF10BD1FB503920022009203AAFFF759
:109120005DFF05B05DF804FB1FB5039201220092BC
:1091300003AAFFF753FF05B05DF804FB41DF70475A
:10914000064B10B500241C70054B1C60BFF35F8FED
:109150000449054800F0BAF9204610BD84260020D5
:10916000882600203C7503007C26002007B50023DC
:109170000DF107008DF80730FDF7F8FFF1EE103A1A
:1091800023F09F03E1EE103ABFF35F8F0A4B4022BA
:10919000C3F884219DF80700FEF70CF809F0FEFEE5
:1091A00020B103B05DF804EBFFF7C8BF20BF40BF9C
:1091B00020BF03B05DF804FB00E100E00268136823
:1091C0005268934291BFD01A80680130801888BFDE
:1091D000C01A704703682DE9F0411F681E681546E4
:1091E0005A68964286BF83680133961B8846C268D8
:1091F000416888BF9E1BB542044607FB02110CD88C
:109200006A4340460AF0B2F9A3683D449D4288BFD4
:10921000002523681D60BDE8F08106FB02F73A4691
:1092200040460AF0A3F9E2686168AD1B6A4308EBA7
:1092300007000AF09BF9ECE7036881681A685B682D
:109240008B4234BF01330023D31A58425841704730
:1092500073B5002304460DF107000D468DF8073065
:10926000FDF784FF2046FFF7E7FF10B1237C002BBA
:109270003BD12368A1685E685A688A4234BF0132D4
:1092800000225A6028B11A688A4234BF0132002293
:109290001A60E2686368511E072920D8DFE801F0F0
:1092A00004101F141F1F1F182A789A552046FFF715
:1092B00085FF23689A68824200D29860002415E0F6
:1092C0002A8823F81620F1E72A6843F82620EDE7DC
:1092D000D5E9000103EBC603C3E90001E6E729462F
:1092E00002FB06300AF042F9E0E704249DF807008B
:1092F000FDF760FF204602B070BD7FB505460191C5
:109300001446AAB10DF10F0000268DF80F60FDF78D
:109310002DFF2846FFF752FFA04201990BD32246AA
:109320002846FFF757FF34469DF80F00FDF742FF30
:10933000204604B070BD0524F6E737B50446002585
:109340000DF107008DF80750FDF710FF0C2229469C
:1093500020680AF034F99DF80700FDF72BFF03B0F1
:1093600030BD036818685B68C31A5842584170479B
:1093700073B5002305460DF107000C4616468DF81F
:109380000730FDF7F3FE2846FFF7EBFF002832D148
:109390002B6819682EB91A68A868824238BF561C13
:1093A0001E60EA686B68501E07281ED8DFE800F0D0
:1093B000040E1D121D1D1D165B5C237000249DF8FC
:1093C0000700FDF7F7FE204602B070BD33F81130FC
:1093D0002380F3E753F821302360EFE703EBC10369
:1093E000D3E90023C4E90023E8E701FB023120466A
:1093F0000AF0BCF8E2E70524E1E7836800225A603E
:10940000C3E904229A60DA601A6070472DE9F041DE
:109410000646884617461D4683B9B0687368D0E98A
:10942000031403F1010C0A1B62450ED100243C60B9
:1094300015B3FFF7E6F80020BDE8F0818068FFF77C
:10944000D7F80028E9D01120F6E701EA030223400B
:109450009A4238BF64443B682CBFACEB0204641AE8
:109460009C4228BF1C4633683C601344C8F8003057
:10947000C3681C44C460DEE72846DDE70346806815
:109480005B68826810B50469013323449B1A8B42E0
:1094900009D31144C0E90211FFF7B0F8002814BF46
:1094A0000020082010BD0420FCE7806808B5826811
:1094B0000369D21A8A4207D31944C0E9041104305F
:1094C000FFF79FF8002008BD0420FCE70B684A68FE
:1094D0004360934208BF0023016008BF43607047A8
:1094E000436843B10268916852680B4493424360F9
:1094F00004BF00234360704770B5446806460D46BC
:10950000206818B1B3682946984718B923682B60BA
:10951000256070BD2468F3E74368186808B10268E5
:109520001A6070474368186870474368186800B944
:109530007047884203D102681A60012070470346D1
:109540000068F4E710B50D49A1F59472914201D875
:1095500000200FE08C1AE30F03EBE4035B1002EB37
:10956000C30452F83330834205D802D204F1080212
:10957000ECE7606810BD2146E8E700BF487A0300C9
:1095800008B5FFF7DFFF024B002808BF184608BDEB
:109590000B7903000B7B23B14B680360002303713D
:1095A00070470B6803600123F9E703684A6889681C
:1095B00010B5D41A8C428BBF5B1800230360026085
:1095C00098BF037110BD03680A68896810B59C1ABA
:1095D0008C428BBF5B1A01230360026098BF03714A
:1095E00010BD037910B504461BB1FFF7DEFF2068FC
:1095F00010BDFFF7E8FFFAE738B5074C051E04F188
:10960000080318BF1C4623682BB11A6822605B68E8
:1096100028469847F7E738BD9426002020B9054B27
:1096200001225A70FFF7E8BF012802D1014A907069
:10963000F8E770478C26002020B9034B01225A70AE
:10964000FFF7DABF704700BF8C26002038B50E4CFC
:109650002378B3B90D486360A3602361E36000F031
:10966000C9F9054609F09AFC08B900F0CFF90123C1
:109670002370074BD3F800340BB10123A3702846A5
:1096800038BD8525F5E700BF8C2600201D96020019
:109690000000014037B50D4C00230DF107008DF897
:1096A0000730FDF763FDE368013BE360E36833B92E
:1096B000074BD3F8005415B900F0BAF9A5709DF81E
:1096C0000700FDF777FD03B030BD00BF8C260020FA
:1096D00000000140012813B50CD0032820D038B970
:1096E000134B0122C3F88020BFF34F8FBFF36F8F5E
:1096F00002B010BD0F4C00230DF107008DF80730AC
:10970000FDF734FD23780BB9FFF7A0FFE3689DF860
:1097100007000133E3600123A370FDF74BFDE7E78A
:1097200000F074F902B0BDE81040FFF7B3BF00BF0E
:1097300000E100E08C26002031DF70471FB50023D8
:109740008DF807000DF10F008DF80F30FDF70EFDBD
:1097500009F024FC50B909480DF10701FFF778FD25
:109760000648FFF769FD08B100F0F0FB9DF80F0017
:10977000FDF720FD05B05DF804FB00BF5C70030041
:1097800007B520B103280DD003B05DF804FB104BE2
:109790001B78012BF8D100F0D9FB03B05DF804EB86
:1097A00000F0DCBB00230DF107008DF80730FDF75A
:1097B000DDFC07480378012B05D10649013000F094
:1097C00085FB00F0B1FB9DF80700FDF7F3FCDBE73C
:1097D000F02600203D97020013B5124C2378FBB908
:1097E000114A8DF80730002808BF10460288A4F8F7
:1097F00001200DF10700FDF7B9FC09F0CFFB30B9EE
:109800000A49601C00F062FB40B900F08DFB9DF836
:10981000070001232370FDF7CDFC002002B010BD2E
:109820008520FBE7F0260020527A03003D970200D6
:1098300007B500230DF107008DF80730FDF796FC02
:1098400009F0ACFB18B900F081FB00F087FB9DF834
:109850000700FDF7AFFC0448FFF76FFD034B002244
:109860001A7003B05DF804FB5C700300F026002062
:109870002DE9F7430024DFF8589005460E46A04630
:109880000DF107008DF80780FDF770FC09F086FBED
:10989000074638B9324629464846FFF72EFD0446AA
:1098A00000F042FB9DF80700FDF784FC47B131460C
:1098B0002846FFF741FF42F207039842044605D0CD
:1098C000022CDDD0204603B0BDE8F0830524F9E783
:1098D0005C700300F8B505460C4604B9F8BD402C91
:1098E000264628BF4026F7B239462846FFF7C0FF74
:1098F0000028F9D1A41B3544EFE700001FB5037819
:109900008DF800304368019383688DF80830C36890
:10991000054A0393054B684653F8213052F821104D
:10992000984705B05DF804FBF4260020F8260020D7
:109930001FB503788DF800304368019383688DF874
:109940000830C368054A0393054B684653F8213035
:1099500052F82110984705B05DF804FBF42600206A
:10996000F8260020F0B5194B90F800C091F81DE0E2
:1099700043F82C20164B16460A6943F82C20154B49
:1099800003F80CE00C4607460FCC89B06D460FC5B6
:1099900094E80F0085E80F00CDF810C0BEF1000F6D
:1099A00009D0002E0C4A694608BF3246381D00F027
:1099B000FDFD09B0F0BD002E084A694608BF3246D9
:1099C00007F10C0000F0D4FBF3E700BFF8260020FD
:1099D000F4260020FC260020FD98020031990200A8
:1099E00000F18040002382B0036003680193019B73
:1099F00002B07047044A137923B9012110609180A5
:109A0000184670478520704700270020074B1A68CA
:109A1000D20704D4C02283F8002301221A604FF039
:109A200080430122C3F81825704700BF00E100E021
:109A30004FF0804208B50223C2F808334FF4827019
:109A4000FFF7CEFF0123D360D2F81834DB03FBD439
:109A500008BD00004FF0804110B5D1F8003163B16E
:109A60004FF48070FFF7BCFF0D4B58790122C1F80D
:109A7000082310B95A711B6898474FF08042D2F8FA
:109A8000043163B14FF48270FFF7AAFF0223C2F8DA
:109A90000833034BBDE810401B680120184710BD78
:109AA0000027002000F1804000F5C040002382B074
:109AB000036003680193019B02B07047800000F1CE
:109AC000A040D0F8002722F44032C0F80027D0F898
:109AD000003743EA0141C0F800177047054B4FF0CB
:109AE000FF32072843F8202084BFC01880F84820A0
:109AF000704700BF0827002010B51A4C94F8583062
:109B00006BBB4FF0FF3222FA03F1C90748BFE118DF
:109B100003F1010348BF81F83020202BF3D100214D
:109B2000C8B20131FFF7DAFF0C29F9D10422002174
:109B30000D4809F044FD0D4BC02283F80623402256
:109B40001A604FF4BE70FFF7ADFF094B4FF00042B3
:109B5000C3F80423012384F85830002010BD0820E6
:109B6000FCE700BF082700205C27002000E100E0A0
:109B700000600040034B93F85800003818BF0120E4
:109B8000704700BF08270020F0B5394E331893F90D
:109B90003030002B69DA8D78C5F34005002D0BBFFE
:109BA000082300230C240824A34201D10420F0BD83
:109BB00056F82370013743D137185CB246F823209A
:109BC00087F8304015B9F21882F848008A785507AE
:109BD00016D4D70736D5820002F1A042D2F800573A
:109BE00025F00205C2F80057224FC50800F0070C07
:109BF000012202FA0CF217F805C042EA0C027A556B
:109C00008A780D7812F0020225D09B0003F1804380
:109C100003F5C0430002D3F8102522F4473222F4A2
:109C20004072C3F810252D04D3F8102500F4F85025
:109C300005F4403528431043C3F810050020B6E76B
:109C40000133B1E74D7800F5E0724FF0A047AD0069
:109C500047F82250C8E7083C46FA84F494F85000CC
:109C600040EA851584F85050E8E708209FE700BFD8
:109C7000082700205C27002038B5204C251895F9CE
:109C80003020072A18DD083A44FA82F494F850305C
:109C90009B09032B0BD14FF0A043D3F81015C14003
:109CA00001F001010231BDE83840FFF707BF012B89
:109CB0000CBF02210321F6E7D3B2072B1DD8930076
:109CC00003F1804303F5C043D3F8100540F00100D1
:109CD000C3F8100502F1400040B2800080B2FFF7E7
:109CE000E1FE51B195F9303054F823302BB1012306
:109CF00003FA02F2024BC3F8042338BD0827002000
:109D0000006000404FF0A043D3F8103523FA00F074
:109D100000F00100704700002DE9F74F00244E4D80
:109D200001944FF48072012102F1804303F5C04396
:109D300090B21B68012B06D1D5F804330B4202D038
:109D4000FFF7B0FE0C430432B2F5907F4FEA4101B9
:109D5000EAD1414BD3F87C31012B0CD14FF4BE70CA
:109D6000FFF7A0FE4FF0A04344F00044D3F82025B5
:109D70000192C3F82025E3B2D3B1384F0025012664
:109D8000344210D0AB0003F1804303F5C043D3F855
:109D90001005D3F8101557F8253023B1C1F3014150
:109DA000C0F3042098470135082D4FEA4606E7D155
:109DB000002C48DA294D4FF0A048294E4FF00009F9
:109DC000012716F9013B5A1C31D0C3F3C20202A984
:109DD0000A44DCB212F8042C03F03F0A03F0070334
:109DE00007FA03F31A4222D00AF5E073504658F8F6
:109DF0002330C3F3014BBBF1020F0CBF032102213F
:109E0000FFF75CFE07FA0AF3C8F8203505EB0A03F2
:109E100093F9303055F823304BB1A109032904D010
:109E2000BBF1020F12D1012901D15046984709F127
:109E30000109B9F1040FC4D1D8F820350193C8F84D
:109E40002035002BB9D103B0BDE8F08FBBF1030F73
:109E5000EDD10229E8E700BF00600040082700209C
:109E600058270020014B1B68184700BF64270020BB
:109E70000E4B984237B50C4602D0002003B030BDDF
:109E800000230DF107008DF80730FDF76FF9084B3F
:109E90001D7915B901221C601A719DF80700FDF7A4
:109EA00089F9002DE9D01120E8E700BF002000402B
:109EB00064270020034B984201BF034B00221A6025
:109EC0001A717047002000406427002010B5124C22
:109ED0002378FBB9114B1960037813F0010F104B75
:109EE0001EBFD3F8042542F00102C3F80425D3F8BD
:109EF000002222F00102C3F800224378094A5B01E4
:109F0000DBB282F80D334FF400531360012323704A
:109F1000002010BD8520FCE7702700206C27002062
:109F200000D0004000E100E0074B0022C3F8002110
:109F300082B0D3F800210192019A0122C3F80423D0
:109F40001A6002B0704700BF00D00040024B0122EF
:109F5000C3F808235A60704700D00040084B012224
:109F6000C3F808235A60074B4FF40052C3F880200F
:109F7000BFF34F8FBFF36F8F034B00221A707047F0
:109F800000D0004000E100E070270020074B0022D5
:109F9000C3F8002182B0D3F800210192019AD3F8CE
:109FA0000805034B1B68C0B202B0184700D0004040
:109FB0006C2700200023435082B043580193019B3B
:109FC00002B070470A4610B54FF48E71FFF7F2FFEA
:109FD000136A9168C95C136A01331362C0F81C15D7
:109FE00010BD8B690A4610B54FF4847123B9FFF791
:109FF000E1FFD0F8183510BDFFF7DCFF536AD168D8
:10A00000D0F81805C854536A01335362F3E70000CF
:10A010001FB501238DF80030044BCDE90110D3E9C1
:10A0200000126846904705B05DF804FB74270020D5
:10A0300030B54D4DD5F804339A0585B051D5D5F8D6
:10A040002431002B4DD04FF492712846FFF7B2FF18
:10A050004FF40173C5F80833444B93F829200AB92B
:10A0600001226A60404902228DF80020D1F8802444
:10A07000C1F8802403929A690292DA680192002260
:10A08000C3E906226846D3E9001290473648D0F863
:10A090001C315BB1354A5169136A99424DD992F826
:10A0A0002830002B49D11146FFF78CFF2E48D0F8FD
:10A0B0004431002B56D04FF4A271FFF77BFF2B4B9E
:10A0C00093F829200AB1012202609A69002A49D036
:10A0D000586AD96800229A6105B0BDE83040FFF7A0
:10A0E00097BFD5F804335B07D0D5D5F80831002BDE
:10A0F000CCD01E4C1C482146FFF773FF636AA2694F
:10A100009A42C3D1E369E1684BB1A3612369E3607B
:10A110000023606AE3616362FFF77AFFB6E794F8B1
:10A1200029300BB901236B600F4B4FF40172C3F858
:10A1300008230023606AA361EEE70B484FF48E7199
:10A14000FFF738FF5369002BB0D05169029100230B
:10A1500091688DF80030019153616846D2E900138F
:10A160009847A3E705B030BD0020004074270020C9
:10A170002DE9F843534D90F804802C2303FB08533A
:10A18000064693F82A300C469146002B40F0968004
:10A190004D490068FFF76CFE0746002840F09080AC
:10A1A00022683068511C0BD04FF0A041012393402E
:10A1B000C1F8083502F5E0734FF0030C41F823C0F5
:10A1C00061684B1C1FBF01F5E0734FF0A04C4FF0CE
:10A1D000000E4CF823E0A369C0F8243594F814C0AD
:10A1E000637DBCF1010F4CEA0303C0F86C35C0F885
:10A1F0001415C0F80C251DD1A268531C1FBF02F511
:10A20000E0734FF0A0414FF0000C41F823C0E36829
:10A21000591C0BD04FF0A04C01219940CCF80815E7
:10A2200003F5E0714FF0030E4CF821E0C0F808355B
:10A23000C0F810252C2202FB08F2AB18C3F80490DA
:10A240002369AB50B9F1000F20D04FF48E71247FF9
:10A25000FFF7B0FE4FF4A2713068FFF7ABFE326833
:10A260001A4BC2F80433130B42F307326101002A80
:10A27000C9B21EDB1648841884F800130121520964
:10A2800003F01F0301FA03F340F82230336804227D
:10A29000C3F800252C2303FB08530022C3E9062240
:10A2A00083F829205A61012283F82A203846BDE824
:10A2B000F883084A03F00F03D154E7E70827F5E7CE
:10A2C0001127F3E77427002031A00200800002006C
:10A2D00000E100E014ED00E0F8B503680579304CCA
:10A2E0000022C3F800252C2202FB05425268A2B1CD
:10A2F0002C4AC3F808231A0B43F30733002B0CDB5B
:10A3000002F01F015B0901228A402033264941F8EF
:10A310002320BFF34F8FBFF36F8F0068D0F80C6519
:10A32000D0F81415D0F80835D0F810254FF0FF37C5
:10A33000BE42C0F8147518BF06F5E076C0F80C757B
:10A34000C0F80875C0F810751EBF4FF0A0474FF059
:10A35000020C47F826C04E1C1FBF4FF0A04601F567
:10A36000E071022746F82170511C1FBF4FF0A04139
:10A3700002F5E072022641F822605A1C1FBF03F565
:10A38000E0734FF0A042022142F82310FFF792FD44
:10A390002C2303FB0544002384F82A306360F8BDB6
:10A3A000742700208402020000E100E00279044BDF
:10A3B0002C2101FB02335869003818BF0120704777
:10A3C000742700202DE9F84F064690F8048089464E
:10A3D0009246FFF7EBFF044600283CD1204F2C2586
:10A3E00008FB057B4FF48E71CBF814A0CBF80890D6
:10A3F000CBF820008BF828003068FFF7DBFD3068D1
:10A40000012383605946FFF7DDFDDBF804305D462C
:10A410001BBB3068DBF814402B6A9C4211D83368B0
:10A42000D3F81C21002AFBD00122DA6000202C2363
:10A4300003FB087700237B61BDE8F88F95F828308F
:10A440003BB9D0F81C31002BF8D05946FFF7BAFDC4
:10A45000E2E70F20EBE71120EEE72046ECE700BF34
:10A46000742700200023435082B043580193019B7E
:10A4700002B070471FB501238DF80030044BCDE9C1
:10A480000110D3E900126846904705B05DF804FB5F
:10A49000A02700207FB5434AD2F82461002E60D067
:10A4A00010464FF49271FFF7DDFF02238DF8003064
:10A4B000D2F88034C2F880340393D2F83C3502934A
:10A4C000394BDA6801920022C3E906226846D3E9D3
:10A4D000001290473348D0F8443173B14FF4A27161
:10A4E000FFF7C0FF304B9A693AB10022C3E9062258
:10A4F000D968D0F83C05FFF7BDFF2A48D0F82031D5
:10A50000ABB14FF49071FFF7ADFF0123C360264B51
:10A510005A6962B1D0F84C150291002299688DF801
:10A52000002001915A616846D3E9001290471D4806
:10A53000D0F858319BB14FF4AC71FFF793FF1A4B31
:10A540005A6962B1D0F84C150291002299688DF8D1
:10A55000002001915A616846D3E90012904704B087
:10A5600070BDD2F81031002BB4D04FF48871104672
:10A57000FFF778FF0C4BD2F83C0599698842A9D1C6
:10A58000DC69D96864B1D2F8005225F02005C2F820
:10A5900000521A699C61DA60DE61FFF76BFF99E790
:10A5A0009C61FAE700200040A02700202DE9F84335
:10A5B0005A4E90F80480242303FB0863044693F862
:10A5C00020300D469146002B40F0A380544900688E
:10A5D000FFF74EFC0746002840F09D802A6820685F
:10A5E000511C0BD04FF0A04101239340C1F8083516
:10A5F00002F5E0734FF0030C41F823C069684B1C6F
:10A600001FBF01F5E0734FF0A04C4FF0000E4CF867
:10A6100023E0AB69C0F8243595F814C06B7DBCF11C
:10A62000010F4CEA0303C0F86C35C0F80C25C0F8E4
:10A6300014151DD1AA68531C1FBF02F5E0734FF01B
:10A64000A0414FF0000C41F823C0EB68591C0BD01F
:10A650004FF0A04C01219940CCF8081503F5E071AA
:10A660004FF0030E4CF821E0C0F80835C0F8102573
:10A67000242202FB08F2B318C3F804902B69B350EC
:10A68000B9F1000F2FD04FF488712A7FFFF7EAFE4F
:10A6900020684FF49071FFF7E5FE20684FF4927147
:10A6A000FFF7E0FE20684FF4A271FFF7DBFE4FF4E6
:10A6B000AC712068FFF7D6FE23681A49C3F804136B
:10A6C000190B43F307335201002BD2B21CDB16489F
:10A6D000C51885F8002301225B0901F01F0102FA69
:10A6E00001F140F8231023680822C3F80025242331
:10A6F00003FB08660023C6E906337361012386F86D
:10A7000020303846BDE8F883084B01F00F015A5459
:10A71000E9E70827F5E71127F3E700BFA0270020A6
:10A7200095A402001003420000E100E014ED00E0F7
:10A73000F8B5444C0579242303FB054302465B68C6
:10A740000068ABB1404BC0F8083340F30733002B2F
:10A750004FEA10310CDB01F01F065B090121B1400B
:10A7600020333A4E46F82310BFF34F8FBFF36F8F5D
:10A77000D0F8003223F02003C0F80032242303FB7A
:10A7800005439B692BB14FF4A271FFF76BFE0123C8
:10A7900043604FF4AC71FFF765FE0123C3602423CF
:10A7A00003FB0543D0F858110029FBD0996919B172
:10A7B000D0F844110029F5D00023C0F80035136803
:10A7C000D3F80C75D3F81465D3F80825D3F8101511
:10A7D0004FF0FF3C6745C3F80CC518BF07F5E0779D
:10A7E000C3F814C5C3F808C5C3F810C51EBF4FF0A1
:10A7F000A0434FF0020C43F827C0771C1FBF4FF057
:10A80000A04306F5E076022743F826704E1C1FBFD2
:10A8100001F5E0714FF0A043022643F82160531C7C
:10A820001FBF4FF0A04302F5E072022143F822104F
:10A83000FFF740FB242303FB0544002384F820306A
:10A840006360F8BDA02700201003420000E100E093
:10A850000279044B242101FB02335869003818BFE8
:10A8600001207047A027002001F06043B3F1005F92
:10A870002DE9F0470646884692463BD190F8049071
:10A88000FFF7E6FF0446002836D11D4F3068242527
:10A8900005FB09754FF49071C5F814A0C5F8088040
:10A8A000FFF7E0FD4FF4AC713068FFF7DBFD336874
:10A8B0006A69A968C3F84415C3F8482501229A605B
:10A8C0006A68DAB9D3F82021D3F858011AB90028F8
:10A8D000F8D00F2007E00028FBD10122DA60D3F87E
:10A8E0005821002AFBD0242303FB097700237B6136
:10A8F000BDE8F0871020FBE71120F9E72046F7E7D5
:10A90000A0270020054A4FF0A043105CD3F804357F
:10A9100023FA00F0C04300F001007047787A03008A
:10A92000044B1A5C012393404FF0A042C2F80C354F
:10A93000704700BF787A0300044B1A5C01239340F0
:10A940004FF0A042C2F80835704700BF787A030084
:10A9500008B50020FFF7F0FF0120FFF7EDFF022010
:10A96000FFF7EAFFBDE808400320FFF7E5BF08B5A1
:10A970000020FFF7D5FF0120FFF7D2FF0220FFF7ED
:10A98000CFFFBDE808400320FFF7CABF074A4FF0DA
:10A99000A041105CD1F804350122824022EA030074
:10A9A0001340C1F80805C1F80C357047787A0300E8
:10A9B000054A4FF0A043105CD3F8103523FA00F09D
:10A9C000C04300F001007047747A03000D2809D0DD
:10A9D0000E2809D00F2809D010280CBF03204FF0F3
:10A9E000FF307047002070470120704702207047F9
:10A9F000014B185C704700BF747A0300C20708B5AA
:10AA000001460CD54FF0A0430322C3F84427C3F8F6
:10AA10004827C3F84C27C3F85027FFF799FF8B0747
:10AA20000AD54FF0A0430C22C3F83427C3F83827C7
:10AA3000C3F83C27C3F8402708BDF0B595B01D46C4
:10AA4000164608460C46FEF753FB1A9B0D93CDE9BC
:10AA5000086500252B46082205A920460A958DF891
:10AA60002C500C95FEF760FB079B0293069B03930B
:10AA70009DF814308DF8115003F00302012A1DD106
:10AA8000BDF81420059DC3F3C203C2F383168DF8ED
:10AA90001030B20008230EA92046FEF745FBC5F38F
:10AAA000952508AB0093324602AB0EA9284600F06C
:10AAB00007FC2046FEF720FB15B0F0BD022AF8D1B6
:10AAC000BDF81650C3F3C203C5F389158DF81030D5
:10AAD0000827082D2E4628BF08263B4632460EA9D9
:10AAE0002046FEF721FBAD1B08AB02AA31460EA89B
:10AAF000374400F049FC002DEBD1DAE7014B01228D
:10AB00001A707047052800207047000070B50E4D80
:10AB100006460FCD88B06C460FC495E80F00002E96
:10AB200084E80F00094A0A484FF0060308BF0022D4
:10AB300069460093FEF716FF08B1FCF7BBF8054B1A
:10AB40001E7008B070BD00BF7C7A0300FDAA020031
:10AB5000F0220020C427002007B5044B0093044ACC
:10AB60004023FFF76AFF03B05DF804FB75AB0200FA
:10AB7000C527002038B50D480D4C0E4D002323701D
:10AB80000378EB5CD2B263B10430FFF76DFE08B11D
:10AB9000FCF790F8084B1A7812B12378002BFBD001
:10ABA00038BD0C30FFF70EFCF1E700BFF0220020AB
:10ABB00005280020FC260020C427002008B50848EE
:10ABC000084A0378D35C3BB10430FFF7B1FDBDE820
:10ABD00008400020FFF79ABF0C30FFF77DFBF6E737
:10ABE000F0220020FC2600200120FFF78FBF00008C
:10ABF00008B5FFF7F9FF0448042100F0CBFA034B36
:10AC000001225A7108BD00BF3472030004230020E2
:10AC1000037813F0040216D003F00303012B03D0D2
:10AC2000022B09D0012070470A6800880232C0F365
:10AC3000831002440A60F5E70B684288023303EB95
:10AC400092130B60EEE71046704700002DE9F04FBD
:10AC5000DFF81CA187B00F4600230446861C0DF1C7
:10AC6000070015468DF80730FCF780FADAF8042063
:10AC70003A60DAF8083003F580739B1A0AF21C4731
:10AC80000AF583690AF21448B3421AD30020002D52
:10AC900069D004F00F039B0143F0050363F30F0039
:10ACA000DAF80430DAB2033233444AF822009DF86D
:10ACB0000700CAF80430FCF77DFA012007B0BDE8B0
:10ACC000F08F01213846FDF77BFC4846FDF793FCE9
:10ACD0004046FDF790FCDAF808000290C0B203305D
:10ACE0000AEB800002A9FFF793FF029B30BBDAB2A8
:10ACF0000AEB8202D16803919A1C0133DBB20AEBA2
:10AD000083030292D3F80CB001F00303012B22D08D
:10AD1000022B15D083464046FDF770FC10B1029B14
:10AD2000CAF8083059463846FDF74AFCDAF80830C8
:10AD3000DAF8042003F580739B1AA5E7D8B2CEE7B2
:10AD4000BDF80E30C3F3891303334FEA1B4B02EBFC
:10AD500093030293DFE7BDF80C30C3F383134FEA8C
:10AD60001B4B1344F5E7A40544F0060098E700BF29
:10AD7000D8280020064B074810B500221A70FEF7AD
:10AD800070F9044610B90448FEF737FB204610BDA1
:10AD9000D82800200C710300D07A030030B50A4C8B
:10ADA00071B10A4A0A49121BD20800239A4201D102
:10ADB000002030BD31F82350854202D00133F5E741
:10ADC000034654F83300F4E73C7103003472030087
:10ADD00064220020094B013903EBC000032909D884
:10ADE000DFE801F00A02040604207047007970478A
:10ADF0004079704700207047022070473C71030083
:10AE000070470000154B1B7837B504460BB918B9CD
:10AE10000024204603B030BD08F004FC013000904F
:10AE200001230F486A4601A9FEF7F0FA05460028FB
:10AE3000EED12146009A019808F098FBDDE9002345
:10AE40001344074803F8015C0099FEF717FB0099CB
:10AE50000348FEF72AFB019CDBE700BFD82800204F
:10AE6000D07A0300034BD3E90130C31A584258414A
:10AE7000704700BFD82800202DE9F04186B0FFF7C9
:10AE8000F1FF0546002840F0ED80774CC4F8180427
:10AE9000BFF34F8FA3680293DBB2033304EB83004D
:10AEA00002A9FFF7B5FE029B18B1D4F81824002AB6
:10AEB0005AD0DAB2991C013304EB8202DBB204EB04
:10AEC0008303D268DB68049302F00303022B03922E
:10AED000029154D1BDF80E306448C3F38917502F46
:10AEE0003E4628BF502606F1080166F38F13C1F3D2
:10AEF0000901ADF80E30FEF7CCF80546002800F049
:10AF00009C80FEF7F5F80023082203A92846FEF7E7
:10AF100001F90299CB43DBB20133C9B20331B6EB7D
:10AF2000830F4FEA830204EB810125D95FFA82F88F
:10AF30000823A6EB08062846FEF7ECF8F6B208F15F
:10AF400008034B4903F0FC0332462846FEF7E2F8BB
:10AF5000029B033703EB97070297D4F81834002BB2
:10AF600043D1D4F8106453E062689A4294D8A26046
:10AF7000284606B0BDE8F08108233246E5E7012BFC
:10AF80005BD1BDF80C303948C3F38311062928BFC3
:10AF9000062161F38913023101F00F018900ADF838
:10AFA0000C30FEF776F80546002846D0FEF7A0F8EC
:10AFB0000023082203A92846FEF7ACF80026BDF8B6
:10AFC0000C20C2F38312B300964203F10803C4D2EB
:10AFD00002994A1CC9B20331029204EB8101042296
:10AFE0002846FEF797F80136E9E72846FEF784F889
:10AFF000FFF738FF80F00100C5B2B9E7F3685B796D
:10B0000023B1336829461B6830469847F3681E68A9
:10B01000002EF3D12846FEF76FF80DF107008DF8EA
:10B020000760FCF7A3F8D4F818340BB9029BA360AF
:10B030009DF80700FCF7BEF8DAE7D4F8104454B9DD
:10B040000C4B0D480D49C01AC008000440F0020026
:10B0500000F05EF8CCE7236820469B689847E368D9
:10B060001C68ECE7002583E7D82800200C7103005A
:10B07000E42800203C7103006C710300B97A0300DE
:10B080002DE9F34704460E46924601A901221846CF
:10B090009946FFF7DBFD1C4F10B3019D4FF00008F0
:10B0A000AA1CC84508EB020125D118480021FDF76C
:10B0B00040FA80F31000000440EA1440E4006B1CE6
:10B0C00004F03804DBB2EDB244F0010407EB830373
:10B0D000033544EA881444EA8624D86047F82540BA
:10B0E0003B781BB1FFF7C8FE0028FBD1FFF788FEB5
:10B0F00002B0BDE8F087C9B207EB81015AF82830E9
:10B10000CB6008F10108CCE7D8280020F42C0020FF
:10B1100000231A46FFF7B4BF07B50123019201AA25
:10B12000FFF7AEFF03B05DF804FB07B5CDE90023E0
:10B1300002236A46FFF7A4FF03B05DF804FB1FB5C6
:10B14000CDE90123069B039301AA0323FFF798FF90
:10B1500005B05DF804FB1FB5CDE90023069B029303
:10B16000079B03936A460423FFF78AFF05B05DF847
:10B1700004FB7FB5CDE90123089B0393099B04934E
:10B180000A9B059301AA0523FFF77AFF07B05DF834
:10B1900004FB000030B50F4CD4F810240346002007
:10B1A000114631B9D96808714AB9C4F810340A6037
:10B1B00030BDC9680D79854206D00968F1E7D268CB
:10B1C00014680C601360F3E701300A28E8D14FF0EF
:10B1D000FF30EDE7D828002038B5084B0125D3F81B
:10B1E00010441D7004B938BDE3685D7123682046C2
:10B1F0005B689847E3681C68F4E700BFD828002024
:10B2000030B5C38885B004460D4633B1144A009268
:10B210001449154A2846FDF757FA217A05291DD009
:10B22000637A4BB1A088FFF7D5FD104B104953F856
:10B2300020202846FDF748FA227A0E4BA08853F8C2
:10B24000222003920021FFF7A9FD039A0A49034631
:10B25000284605B0BDE83040FDF736BA05B030BD30
:10B26000FC7A0300E47A0300DC7A0300687B0300C5
:10B270008FB003008C7B0300017B030007B50346FE
:10B280000846197A052911D05B7A2BB1094A0A4977
:10B290000190FDF719FA019808490190FDF714FA99
:10B2A000019803B05DF804EBFDF703BA002AF8D06B
:10B2B000F2E700BFFC7A03008FB00300F97A0300C5
:10B2C0002DE9F04385B01F460C9D002395F80C90A6
:10B2D0002B7306460C46904629463846FFF790FFEA
:10B2E000B8F1060F09D8DFE808F00412181F283358
:10B2F000400031462846FDF7E7F900222946384646
:10B30000FFF7BCFF85F80C9005B0BDE8F08322681C
:10B3100031462846FDF7D8F9EFE7D4E90023314656
:10B320002846FDF7D1F9E8E7A36800933146D4E950
:10B3300000232846FDF7C8F9DFE7E3680193A36817
:10B3400000933146D4E900232846FDF7BDF9D4E740
:10B3500023690293E3680193A36800933146D4E91B
:10B3600000232846FDF7B0F9C7E763690393236913
:10B370000293E3680193A36800933146D4E9002364
:10B380002846FDF7A1F9B8E708292DE9F74F8046CF
:10B390000E4617461C463CD8002593F80C901D73AA
:10B3A00019461046FFF72CFFDFF888A0DFF888B0B9
:10B3B000AE4231D918F8052059462046FDF784F9E8
:10B3C0000135082DF4D11949194DDFF870A0204638
:10B3D000FDF77AF94FF0000B5E4522D918F80B20E3
:10B3E0007E2A05D81046019208F084F8019A00B927
:10B3F0002E2251462046FDF767F90BF1010BBBF1F8
:10B40000080FE9D1012221463846FFF737FF84F8BB
:10B410000C9003B0BDE8F08F51462046FDF754F97B
:10B42000CEE729462046FDF74FF9E6E7157B0300F6
:10B43000137B0300117B03000B7B0300177B0300CE
:10B440004FF48C72002108F0BAB818B14FF48C7127
:10B4500000F040BE70470000C02AF0B541D0B2F500
:10B46000807F40D0802A40F0C5800A2304460360D4
:10B4700000F10803520944F8043F01EB82028A42BA
:10B4800033D103680C2B3ED00E2B6CD00A2B26D167
:10B490005A4D5B4900F1A006426955F8044B876894
:10B4A000C2F307237C40CB5C6340140E10300C5D6C
:10B4B00083EA0443D4B20C5D83EA0463C2F3074415
:10B4C0000C5D83EA042350F8044C836063400468F5
:10B4D000C36063400361534043618642DCD1002076
:10B4E0008AE00C23C2E70E23C0E78B784D781B045B
:10B4F00043EA05230D782B43CD7843EA056344F8EE
:10B50000043F0431BBE73D4C3D4900F1C005C26931
:10B5100054F8046B8768C2F307237E40CB5C73400A
:10B52000160E18308E5D83EA0643D6B28E5D83EA2E
:10B530000663C2F307468E5D83EA062350F80C6C5F
:10B540008360734050F8086CC360734050F8046C1B
:10B550000361734006684361734083615340C36174
:10B560008542D4D1BBE7254D254900F1E006446A68
:10B5700055F8042B8768C4F307237A40CB5C8769AE
:10B580005340220E20308A5C83EA0243E2B28A5C96
:10B5900083EA0263C4F307428A5C83EA022350F819
:10B5A000142C8360534050F8102CC360534050F863
:10B5B0000C2C03615340DAB243618A5C7A401F0E5F
:10B5C000CF5D82EA0762C3F30727C3F30743CF5D6A
:10B5D000CB5C82EA072282EA034350F8042C8361A1
:10B5E00053400268C3615340036263404362864232
:10B5F000BDD174E76FF01F00F0BD00BFA08C030049
:10B60000A07B03002DE9F04F91B043680D680895C9
:10B610001C68DFF848C3CD4FCD4E6C404D6809958E
:10B6200008945C686C408D680A9509949C686C402D
:10B630000A94CC680B9403F110010791D968C54DA9
:10B6400061400B9101684910019101390291303339
:10B650000091DDE9089ADDE90A815FFA89F4080EB4
:10B660005CF8244057F820004440CAF307205FFAF2
:10B6700081FE56F820005CF82EE04440C8F30740F5
:10B680005FFA88FB55F820005CF82BB0444053F873
:10B69000200C6040C4B20394040E0494C0F3074429
:10B6A0000594C0F3072406944FEA1864C8F30728EA
:10B6B00057F824408EEA040EC9F30724203356F8C5
:10B6C00024408EEA040ECAF3074455F824408EEA5B
:10B6D000040E4FEA1A645FFA8AFA57F824405CF8BD
:10B6E0002AA08BEA0404C1F3072BC1F3074156F8E3
:10B6F0002BB055F8211084EA0B04C9F3074B4FEA2D
:10B70000196955F82BB057F829908AEA090956F8B3
:10B7100028A089EA0A0A8AEA01090099002984EA2C
:10B720000B0400F39780029B0C905E01019B002BA1
:10B73000079BD8BF002633441E46596889EA010199
:10B740000D91986860400E90DB688EEA0304250E28
:10B75000814B0F9413F805C0039D5F5D35696F4001
:10B76000C1F3072587EA0C675D5D87EA0527C0F30B
:10B7700007455D5D87EA0547049D089713F805C0F6
:10B78000756985EA0C6CCDB25D5D8CEA050CC0F381
:10B7900007255D5D8CEA052CC4F307455D5D8CEAE9
:10B7A000054C059DCDF824C013F80580B56985EAE0
:10B7B0000848C5B2000E5D5D88EA05080D0EC1F3AC
:10B7C00007415D5D88EA0568C4F307255D5D88EA89
:10B7D0000528069DCDF8288013F805E0F569185C6A
:10B7E000177085EA0E255FFA84FE82F804C013F80C
:10B7F0000E405B5C82F80880390A5170390C9170F8
:10B800004FEA1C2151714FEA1C41917165404FEA8A
:10B81000182185EA006551724FEA184185EA034311
:10B8200091724FEA1861D172190A5173190C4FEADB
:10B830001C600B93137391731B0E20213C0ED0716F
:10B84000D4700DEB0100D37300F044FC002011B064
:10B85000BDE8F08F0C9053F83C1C89EA0109CDF843
:10B86000349053F8380C039960400E9053F8344CE0
:10B870008EEA04040F944FEA14685CF821E053F850
:10B88000301C57F8288081EA0E0E8EEA080EC9F3A4
:10B890000728049956F828808EEA080EC0F3074856
:10B8A00055F828808EEA080ECDF820E05FFA89F876
:10B8B00057F821E053F82C1C5CF8288081EA0E0E22
:10B8C0008EEA080EC0F30728059956F828808EEAFC
:10B8D000080EC4F3074855F828808EEA080ECDF804
:10B8E00024E05FFA80FE55F821805CF82EE053F8E2
:10B8F000281C8EEA080E4FEA19688EEA010E57F8E6
:10B90000288006998EEA080EC4F30728E4B256F898
:10B9100028805CF824408EEA080ECDF828E056F81E
:10B9200021E0000E84EA0E0EC9F3074153F8244CBF
:10B9300057F8200055F821108EEA040444404C408A
:10B9400000990B940139009183E600BFA0880300A1
:10B95000A0800300A0840300A07B0300A07C030060
:10B960002DE9F04F91B043680D6808951C68DFF829
:10B9700050C3CF4FCF4E6C404D68099508945C681A
:10B980006C408D680A9509949C686C400A94CC6858
:10B990000B9403F110010791D968C74D61400B91D9
:10B9A0000168491001910139029130330091DDF8AD
:10B9B0002080DDF824A05FFA88F44FEA1A60DDE900
:10B9C0000A9157F820005CF824404440C1F3072056
:10B9D0005FFA81FE56F820005CF82EE04440C9F37F
:10B9E00007405FFA89FB55F820005CF82BB0444013
:10B9F00053F8200C6040C4B20394C0F307240494AD
:10BA0000C0F307440594040E06944FEA18642033EB
:10BA100057F824408EEA040EC9F307244FEA196947
:10BA200056F8244057F829908EEA040ECAF30744CA
:10BA300055F824408EEA040E0C0EC1F3074157F866
:10BA4000244055F821108BEA0404CAF3072B5FFA4F
:10BA50008AFA56F82BB05CF82AA084EA0B04C8F3E3
:10BA6000074BC8F307288AEA090956F828A055F8B1
:10BA70002BB089EA0A0A8AEA01090099002984EAB6
:10BA80000B0400F39780029B0C905E01019B002B3E
:10BA9000079BD8BF002633441E46596889EA010136
:10BAA0000D91986860400E90DB680D0E8EEA0304DD
:10BAB000824B0F9413F805C0039D5F5D35696F409D
:10BAC000C4F3072587EA0C675D5D87EA0527C0F3A5
:10BAD00007455D5D87EA0547049D089713F805C093
