:020000022000DC
:10600000000001205D630200456302004763020057
:10601000496302004B6302004D6302000000000070
:106020000000000000000000000000004F630200BC
:106030005163020000000000536302005563020038
:10604000FDBA02005763020061C8020057630200F4
:1060500057630200576302005DC7020057630200E6
:106060005763020057630200576302005763020040
:106070005763020057630200576302005763020030
:1060800057630200598F02005763020057630200F2
:106090005763020057630200251C03005763020088
:1060A0005763020057630200576302005763020000
:1060B0005763020057630200000000000000000068
:1060C00057630200576302005763020057630200E0
:1060D000576302005763020057630200000000008C
:1060E00000000000000000000000000000000000B0
:1060F00000000000000000000000000000000000A0
:10610000000000000000000000000000000000008F
:10611000000000000000000000000000000000007F
:10612000000000000000000000000000000000006F
:10613000000000000000000000000000000000005F
:10614000000000000000000000000000000000004F
:10615000000000000000000000000000000000003F
:10616000000000000000000000000000000000002F
:10617000000000000000000000000000000000001F
:10618000000000000000000000000000000000000F
:1061900000000000000000000000000000000000FF
:1061A00000000000000000000000000000000000EF
:1061B00000000000000000000000000000000000DF
:1061C00000000000000000000000000000000000CF
:1061D00000000000000000000000000000000000BF
:1061E00000000000000000000000000000000000AF
:1061F000000000000000000000000000000000009F
:10620000314932480A1A02D0072291438D4630495B
:1062100030480A1A06D00722914381F309880222E6
:1062200082F314882C482D492D4A00F03CF82D4863
:106230002D492E4A00F037F82D482E492E4A00F0FD
:1062400032F82E482E492F4A00F02DF82E482F49BB
:106250002F4A00F028F82F482F49304A00F023F841
:106260002F483049304A00F01EF8304830490022AB
:1062700000F024F82F483049002200F01FF82F4A80
:1062800090471F481F49884205D00268043003B474
:10629000904703BCF7E700208646EC46002000212B
:1062A000274A9047FEE7884207D0521A05D0037864
:1062B00001300B700131013AF9D17047884202D0A8
:1062C00002700130FAE770470000012000E0002072
:1062D0000000012000000120E4420300B81D00205E
:1062E00040240020B8630200B86302000C230300BE
:1062F000E4420300B81D0020B81D00205024030014
:1063000050240300502403005024030050240300B1
:10631000502403005024030050240300E4420300EF
:106320006C49030040240020402400204024002029
:10633000B12E0020B42E0020B42E00208563020070
:10634000BDEC0200FEE7FEE7FEE7FEE7FEE7FEE744
:10635000FEE7FEE7FEE7FEE700F002B8FFF7FCBF4E
:106360000F484FF00701884385460E4880470E4886
:10637000016841F470010160BFF34F8FBFF36F8F6D
:10638000FFF73EBF09480A490A4A884207D0521A15
:1063900005D0037801300B700131013AF9D1704713
:1063A0000000012025AE020088ED00E0502403002B
:0863B000B81D0020B81D0020FB
:1063B80000B5A1B00590049103920293049803F0EC
:1063C8003FFD039B1593029B16930023179300230D
:1063D8008DF8603000231993229B1A9300231F9392
:1063E8000FA91F9B0822049803F004FE08231F939B
:1063F800119B1293BDF84030ADF84C30BDF84230D7
:10640800ADF84E3000238DF851309DF83C3003F044
:106418000303DBB2012B26D10F9BC3F395231C93F7
:106428009DF83C30C3F3C203DBB28DF85030BDF8A1
:106438003C30C3F38313DBB21B931B9B9A0009A95F
:106448001F9B049803F0D6FD1B9B9B001F9A1344C7
:106458001F9312AA09A915AB009313461B9A1C98FF
:1064680000F0F6FF2FE09DF83C3003F00303DBB2A9
:10647800022B28D1BDF83E30C3F389139BB21E937B
:106488009DF83C30C3F3C203DBB28DF850301E9B3D
:10649800082B28BF08231D9307A91F9B1D9A049842
:1064A80003F0A8FD1F9A1D9B13441F931E9A1D9B62
:1064B800D31A1E9315AB12AA07A81D9901F06AF802
:1064C8001E9B002BE3D1049803F0C9FC00BF21B048
:1064D8005DF804FB00B583B00190019B1B781A4658
:1064E8000C4B9B5C002B05D0019B0433184607F02E
:1064F8007FFC0BE0019B1B781A46064B9B5C002B2C
:1065080004D1019B0C33184606F004FE00BF03B00B
:106518005DF804FB182B002000B587B003900291AA
:1065280013468DF8073000230593039B1B781A4602
:10653800114B9B5C002B09D0039B04339DF807206B
:106548000299184607F0B6FC05900FE0039B1B78EC
:106558001A46094B9B5C002B08D1039B0C339DF812
:1065680007200299184606F04DFE0590059B18462F
:1065780007B05DF804FB00BF182B002082B0019023
:106588000091034B01221A7000BF02B0704700BF90
:106598008024002030B58DB003468DF807301A4BA3
:1065A80002AC1D460FCD0FC495E80F0084E80F001C
:1065B800062302934FF0FF3303934FF0FF33049306
:1065C8004FF0FF3305934FF0EB7308939DF80730B6
:1065D800002B01D00D4A00E0002202AB19460C48FE
:1065E80005F0A4F80B900B9B0A930A9B002B04D090
:1065F800084A43210A9801F073FB074A9DF80730BF
:10660800137000BF0DB030BDB824030085650200CB
:10661800B81D0020502403008124002000B583B059
:1066280001238DF807309DF807301846FFF7B2FFB1
:1066380000BF03B05DF804FB00B589B00390029178
:106648000192019B8DF81F30124B00221A709DF8A1
:106658001F301A4602991048FFF75EFF0690069B06
:106668000593059B002B04D00C4A5321059801F093
:1066780037FB00BF0A4B1B78002B07D0054B1B7854
:10668800DBB283F00103DBB2002BF3D100BF09B00A
:106698005DF804FB80240020B81D0020502403006E
:1066A8008124002000B585B003900291054B00932A
:1066B8004023054A02990398FFF77AFE00BF05B008
:1066C8005DF804FB416602004024002082B001907E
:1066D80000BF02B07047000000B583B001900548C4
:1066E800FFF7F8FE0020FFF755FF00BF03B05DF885
:1066F80004FB00BFB81D002082B00190019BDB683D
:1067080001225A7100BF02B07047000000B583B083
:106718004FF0FF330193FFF781FF0421084800F091
:10672800B3FD0190019B002B03DA0649482007F0CE
:10673800A3FE0348FFF7E0FF00BF03B05DF804FBCA
:1067480040240300F824030000B583B001900091B1
:10675800019B1B681B6800990198984700BF03B00C
:106768005DF804FB00B583B00190019B1B685B6872
:106778000198984700BF03B05DF804FB00B583B0EB
:106788000190019B1B689B680198984700BF03B064
:106798005DF804FB82B001900B468DF80330019B35
:1067A800DB689DF803201A7100BF02B0704782B001
:1067B8000190019BDB681B79184602B0704782B0D4
:1067C8000190019BDB6801225A7100BF02B070473B
:1067D80082B00190019BDB685B79184602B0704774
:1067E80000B585B0019000910C4B00221A700C483E
:1067F80003F08AFA0390039B002B01D0039B08E067
:10680800084803F091FE084A084BD31ADB080293A4
:106818000023184605B05DF804FB00BFEC250020F6
:10682800EC23030064250300EC2303005423030036
:10683800024A034BD31ADB0818467047EC230300BF
:106848005423030000B587B001900B468DF8033040
:106858009DF80330002B1FD0FFF7EAFF04900023B8
:10686800059313E0059B9B000E4A13440393039B77
:106878001B881A46019B1B689A4204D1019B059A02
:106888001A60002309E0059B01330593059A049BD0
:106898009A42E7D3052300E00023184607B05DF8C5
:1068A80004FB00BFB81D002000B585B001900B4661
:1068B8008DF803309DF8032001AB11461846FFF709
:1068C800C1FF0346002B07D1019BDB00054A134497
:1068D8000393039B1B6800E00023184605B05DF88E
:1068E80004FB00BF5423030084B001900B468DF8CD
:1068F8000330019BDB00174A134402939DF80330D1
:10690800013B032B1CD801A252F823F02569020091
:106918002D690200356902003F69020002238DF8E3
:106928000F3011E004238DF80F300DE0029B1B7926
:106938008DF80F3008E0029B5B798DF80F3003E08B
:1069480000238DF80F3000BF9DF80F30184604B0B3
:10695800704700BF5423030084B0019000910023C6
:106968008DF80F30019B1B7803F00403DBB2002B7A
:1069780024D0019B1B78C3F30103DBB2012B02D0A7
:10698800022B0CD017E0009B1B68019A1288C2F3F7
:106998008312D2B213449A1C009B1A600BE0009B2E
:1069A8001B68019A5288C2F3891292B213449A1C46
:1069B800009B1A6000BF01238DF80F309DF80F303F
:1069C800184604B07047000000B58BB00023ADF83E
:1069D80026303E4802F0A4FC3D4802F0A1FC3D4BA5
:1069E8009B6804933C4B1B680693049A069B1340D0
:1069F80002339B00374A13440433089304AB194607
:106A08000898FFF7A9FF0346002B09D0049A069BB4
:106A1800134002339B002F4A134404330893EDE7D5
:106A280000BF0023079311E0049B5A1C0492069AA6
:106A38001340079A920001A90A44264902339B0091
:106A48000B445B681360079B01330793079B012B7B
:106A5800EAD99DF80430C3F30103DBB2012B10D04F
:106A6800022B1CD1BDF80A30ADF82630BDF806302F
:106A7800C3F389139BB203339A08049B134404930A
:106A880013E0BDF80A30ADF82630BDF80430C3F382
:106A98008313DBB21A46049B1344049305E00F49A1
:106AA8004FF4C27007F0E8FC00BF094802F044FC4C
:106AB8000590059B002B02D0049B064A9360BDF805
:106AC800263018460BB05DF804FB00BF042A0020EE
:106AD800002A0020EC250020D41D00207425030086
:106AE80000B585B00021074802F08BFB0390039B9B
:106AF8000293029B83F310030193019B184605B090
:106B08005DF804FB082A002000B589B003900291C3
:106B180001920093039B1B0C0793FFF7E1FF06907C
:106B2800FFF786FE0246079B934204D3214940F2B1
:106B3800A91007F0A1FC069B1904009B5A1C0A9B8C
:106B48001340079A0A431C4902339B000B445A60BE
:106B5800009A0A9B134002339B00174A13440433DC
:106B68000593039B03F00703D9B2059A137861F3E1
:106B7800C5031370019B03F00F03D9B2059A13885C
:106B880061F389131380029BC3F31501059A1368F7
:106B980061F39F231360059A1378012161F30103C0
:106BA8001370059A13786FF38203137000BF09B04E
:106BB8005DF804FB74250300EC25002000BF704736
:106BC80000B58DB00390029113468DF80730039BF2
:106BD80002330A9301238DF8273000238DF81B30E8
:106BE8000DF11B03184601F087FD404B5A68029BC4
:106BF8001A603F4B1A683D4B99683C4B5B68CB1A4F
:106C0800134401330B9314E001213A4802F058FB76
:106C1800FFF7DAFE07900799364802F051FB344B2C
:106C28001A68324B9968314B5B68CB1A13440133AD
:106C38000B930A9A0B9B9A42E6D89DF82730002BB3
:106C480048D0002305939DF80730002B17D09DF8F6
:106C58001430012262F301038DF814309DF81430CA
:106C680043F004038DF81430039B03F00F03DAB2EA
:106C7800BDF8143062F38913ADF8143016E09DF8AE
:106C88001430022262F301038DF814309DF8143099
:106C980043F004038DF81430039BC3F309039AB23D
:106CA800BDF8163062F38F13ADF816300F4B5A68E3
:106CB8000F4B1B68134002339B000C4A13440433E8
:106CC8000893059A089B1A60084B5A680A9B134454
:106CD800064A53609DF81B30184601F023FD9DF8C5
:106CE800273018460DB05DF804FB00BFEC250020E6
:106CF800D41D0020082A002000B58BB0059004910F
:106D080003920293204B1B68079306AB0122194696
:106D18000298FFF755FF0346002B24D0069B023349
:106D280009930023089311E0089B9B00039A1A44D7
:106D3800099B591C099107990B40126813490233A2
:106D48009B000B445A60089B01330893089A029BE6
:106D58009A42E9D3069A079B00931346029A04992C
:106D68000598FFF7D1FE094B1B78002B05D000BF13
:106D780000F080F80346002BFAD1FFF71FFF00BF91
:106D88000BB05DF804FB00BFD41D0020EC250020EB
:106D980000B583B00190009100230022009901986A
:106DA800FFF7AAFF00BF03B05DF804FB00B587B08A
:106DB800039002910192019B059305AA0123029970
:106DC8000398FFF799FF00BF07B05DF804FB00B513
:106DD80087B00390029101920093019B0493009B5A
:106DE800059304AA022302990398FFF785FF00BFC1
:106DF80007B05DF804FB00B589B0039002910192D9
:106E08000093019B0593009B06930A9B079305AA91
:106E1800032302990398FFF76FFF00BF09B05DF8DD
:106E280004FB00B58BB00390029101920093019B83
:106E38000593009B06930C9B07930D9B08930E9B51
:106E4800099305AA052302990398FFF755FF00BF88
:106E58000BB05DF804FB0000054B9A68044B5B68B7
:106E68009A420CBF01230023DBB21846704700BFCB
:106E7800EC25002000B599B0FFF7EEFF0346002B84
:106E880001D00023C0E19B4B0022C3F81824BFF3B4
:106E98004F8F00BF974B9B680493974B1B681093C9
:106EA800049A109B134002339B00924A1344043304
:106EB8001193002317930023169300230F9304AB19
:106EC80019461198FFF748FD0346002B19D0894B46
:106ED800D3F81834002B14D1864B5A68049B9A4275
:106EE80005D8844B5B68834A936000238CE1049A3D
:106EF800109B134002339B007E4A134404331193C2
:106F0800DDE70023159311E0049B5A1C0492109AA4
:106F18001340159A920001A90A44764902339B004E
:106F28000B445B681360159B01331593159B012B6C
:106F3800EAD99DF8043003F00303DBB2022B40F0DA
:106F48009C80BDF80630C3F389139BB20D93BDF83E
:106F58000630C3F389139BB2502B28BF50239BB232
:106F68000C930C9BC3F309039AB2BDF8063062F385
:106F78008F13ADF806300C9B08330B939DF8043043
:106F8800C3F3C203DBB20F930B995C4802F0C7FE50
:106F98001790179B002B00F0D380179802F050FF32
:106FA80001A9169B0822179803F006F8169B0833C8
:106FB8001693049BDA43109B134001339B000A93FA
:106FC8000C9A0A9B9A4242D90A9B002B08D0049A31
:106FD800109B134002339B00464A1344043300E0DD
:106FE800474B08930A9B002B02D00A9BDBB201E0B7
:106FF8000C9BDBB28DF81F300A9B002B01D0404B55
:1070080000E0002306930A9B002B06D00C9BDAB203
:107018000A9BDBB2D31ADBB200E000238DF81730ED
:107028009DF81F20169B0899179802F0C5FF9DF838
:107038001F30169A13441693069B002B16D09DF802
:107048001720169B0699179802F0B6FF0EE0049ACF
:10705800109B134002339B00264A134404330993C0
:10706800169B0C9A0999179802F0A6FF0D9B0333FB
:107078009A08049B1344049362E09DF8043003F0DB
:107088000303DBB2012B5BD1BDF80430C3F38313D8
:10709800DBB2062B28BF0623DAB2BDF8043062F350
:1070A8008913ADF80430BDF80430C3F38313DBB2A1
:1070B80002330E939DF80430C3F3C203DBB20F937F
:1070C8000E9B9B0019460D4802F029FE1790179B4E
:1070D800002B35D0179802F0B3FE01A9169B0822A1
:1070E800179802F069FF169B08331693002315932F
:1070F8001DE000BFEC250020D41D0020EC23030078
:10710800F8250020049B5A1C0492109A134002335D
:107118009B003F4A1344191D169B0422179802F03E
:107128004BFF169B04331693159B01331593BDF83B
:107138000430C3F38313DBB21A46159B9342E1D3A1
:10714800179B002B40D0324BD3F810341493304B9C
:10715800D3F81834002B1BD0179802F080FE4DE0AE
:1071680000238DF84F301498FFF732FB0346002BAD
:1071780002D001238DF84F309DF84F30002B03D0FB
:1071880017991498FFF7E0FA149BDB681B681493AF
:10719800149B002BE4D1179802F061FE00238DF8B0
:1071A80003300DF10303184601F0A6FA184BD3F883
:1071B8001834002B02D1049B154A93609DF80330C4
:1071C800184601F0AFFA19E0114BD3F810341293B6
:1071D80006E01298FFF7D2FA129BDB681B6812933D
:1071E800129B002BF5D10B4A0B4BD31ADB081B045F
:1071F80043F0020309491846FFF7CAFDFFF72CFEC2
:10720800034683F00103DBB2184619B05DF804FBAE
:10721800EC2500207C23030054230300D825030019
:1072280000B585B00023039323E0164BD3F8103440
:10723800029301238DF807300FE00298FFF7B7FAA1
:1072480003461A46039B934203D100238DF8073067
:1072580006E0029BDB681B680293029B002BECD1C3
:107268009DF80730002B01D0039B07E0039B0133F7
:107278000393039B092BD8DD4FF0FF33184605B065
:107288005DF804FBEC25002000B585B001900B46A5
:107298008DF80330FFF7C4FF0390039BB3F1FF3F62
:1072A80001D1039B22E0039BDBB219460198FFF74B
:1072B80071FA104BD3F81034002B08D10D4A019BFA
:1072C800C2F81034019BDB6800221A600DE0094BFC
:1072D800D3F81034DA68019BDB6812681A60054B32
:1072E800D3F81034DB68019A1A60039B184605B07E
:1072F8005DF804FBEC25002000B583B00C4BD3F8F7
:10730800103401930A4B01221A7009E00198FFF723
:1073180056FA0198FFF726FA019BDB681B68019370
:10732800019B002BF2D100BF00BF03B05DF804FB46
:10733800EC25002082B00190009100BF02B0704798
:1073480010B584B003900291039BDB88002B0AD010
:10735800039BDB881A461F4B009313461E4A1F499E
:10736800029802F025F9039B1B7A052B2ED0039B6C
:107378005B7A002B12D0039B9B881A46039B1B7ACF
:1073880019461046FFF7B0FA03461A46144B53F84D
:1073980022301A461349029802F00AF9039B1B6827
:1073A80019460298FFF7C6FF039B1B7A1A460E4B35
:1073B80053F82240039B9B8800211846FFF774FA74
:1073C800034622460949029802F0F2F800BF04B0C9
:1073D80010BD00BF0C2603001C2603005426030022
:1073E800EC1D00206C260300D81D00207026030029
:1073F80000B585B00390029113468DF80730039BC2
:107408001B7A052B0FD0039B5B7A002B06D00D4B04
:107418001B681A460C49029802F0CAF80B490298F0
:1074280002F0C6F807E09DF80730002B03D00749A3
:10743800029802F0BDF8029802F098F800BF05B073
:107448005DF804FBEC1D00206C2603007C2603007D
:1074580030B58BB007900691059204930E9B1B7B69
:107468008DF827300E9B00221A730E990498FFF7A7
:1074780067FF059B062B7FD801A252F823F000BFB7
:10748800A5740200AF740200BF740200D374020036
:10749800F1740200197502004975020007990E98E7
:1074A80002F086F869E0069B1B681A4607990E9851
:1074B80002F07EF861E0069B1A68069B04331B689D
:1074C80007990E9802F074F857E0069B1A68069B15
:1074D80004331968069B08331B6800930B46079909
:1074E8000E9802F065F848E0069B1968069B04337D
:1074F8001868069B08331B68069A0C3212680192BA
:10750800009303460A4607990E9802F051F834E0B2
:10751800069B1868069B04331C68069B08331B6887
:10752800069A0C3212680699103109680291019284
:1075380000932346024607990E9802F039F81CE09A
:10754800069B1C68069B04331D68069B08331B6852
:10755800069A0C3212680699103109680698143098
:10756800006803900291019200932B4622460799E6
:107578000E9802F01DF800E000BF00220E99049852
:10758800FFF736FF0E9B9DF827201A7300BF0BB03C
:1075980030BD00BF00B587B00390029101920093FF
:1075A800029B082B60D8009B1B7B8DF81330009B37
:1075B80000221A7300990198FFF7C2FE0023059371
:1075C80014E0059A029B9A4209D2039A059B134438
:1075D8001B781A462649009801F0EAFF03E025497E
:1075E800009801F0E5FF059B01330593059B072BE8
:1075F800E7D92149009801F0DBFF0023059326E035
:10760800059A029B9A421BD2039A059B13441B7846
:107618008DF812309DF812307E2B0AD89DF8123062
:1076280018460AF07FFD0346002B02D09DF8123061
:1076380000E02E231A461149009801F0B9FF03E033
:107648000F49009801F0B4FF059B01330593059B92
:10765800072BD5D9012200990198FFF7C9FE009B95
:107668009DF813201A7300E000BF07B05DF804FB13
:1076780080260300882603008C260300902603003A
:107688009426030084B003468DF807309DF8073030
:107698005B08DBB21A460D4B9B5C8DF80F309DF8EA
:1076A800073003F00103002B04D09DF80F301B09AD
:1076B800DBB204E09DF80F3003F00F03DBB28DF866
:1076C8000E309DF80E30184604B07047202A00206E
:1076D80084B003460A468DF8073013468DF8063005
:1076E8009DF8073003F00103002B01D00F2300E0C1
:1076F800F0238DF80F309DF8073003F00103002BBD
:1077080004D09DF806301B01DBB201E09DF806307D
:107718008DF80E309DF807305B08DBB21A46114B26
:107728009A5C9DF807305B08DBB219469DF80F306C
:107738001340DAB20B4B5A549DF807305B08DBB2A2
:107748001A46084B9A5C9DF807305B08DBB219466D
:107758009DF80E301343DAB2024B5A5400BF04B0FE
:10776800704700BF202A002000B585B003468DF879
:1077780007300023039310E00F4B1A68039BDB00CC
:1077880013440293029B1B789DF807209A4201D16B
:10779800029B0DE0039B01330393084B1B781A46A9
:1077A800039B9342E8DB0649882006F065FE002328
:1077B800184605B05DF804FB0C2A0020102A0020AA
:1077C800A426030000B585B003460A468DF80730A5
:1077D80013468DF806309DF807301846FFF7C4FFAA
:1077E8000390039B002B0BD0039B5B68002B07D0F7
:1077F800039B5B689DF806109DF807201046984784
:1078080000BF05B05DF804FB2DE9F04F87B00346D3
:107818000A468DF80F3013468DF80E309DF80F305C
:107828001846FFF72FFF0346042B00F2C28001A27F
:1078380052F823F051780200C5780200E17802007E
:1078480011790200277902009DF80E30002B00F014
:10785800AD809DF80F3001211846FFF739FF00234E
:107868008DF817300DF11703184600F045FF9DF805
:107878000F104FF001024FF00003A1F12004C1F1F5
:10788800200003FA01F702FA04F4274322FA00F071
:10789800074302FA01F6494BD3E9002346EA0201FD
:1078A80000913B430193454BDDE90012C3E9001207
:1078B8009DF81730184600F035FF77E09DF80E3038
:1078C800002B01D0022200E000229DF80F30114663
:1078D8001846FFF7FDFE6CE09DF80E30002B0CD02B
:1078E8009DF80F3003211846FFF7F2FE9DF80F3080
:1078F80001211846FFF766FF5BE09DF80F30012174
:107908001846FFF7E5FE54E09DF80E30002B4FD1E6
:107918009DF80F3004211846FFF7DAFE48E09DF87D
:107928000E30002B06D09DF80F3003211846FFF7C4
:10793800CFFE3EE09DF80F3000211846FFF7C8FE45
:107948009DF80F3000211846FFF73CFF00238DF803
:1079580016300DF11603184600F0CEFE9DF80F10F4
:107968004FF001024FF00003A1F12006C1F1200001
:1079780003FA01F502FA06F6354322FA00F0054348
:1079880002FA01F46FEA04086FEA05090B4BD3E920
:10799800002308EA020A09EA030B084BC3E900AB13
:1079A8009DF81630184600F0BDFE02E000BF00E06A
:1079B80000BF00BF07B0BDE8F08F00BF182A002045
:1079C80000B583B00648074B1B685B0800221946C0
:1079D80000F0B0FD019000BF03B05DF804FB00BFEC
:1079E800101E0020142A002000B587B00190002343
:1079F800059328E01C4B1A68059BDB00134404938D
:107A0800049B1B78184604F0F5FD03468DF80F30EB
:107A1800049B5B78012B0CBF01230023DBB21A46C1
:107A28009DF80F309A420CBF012300238DF80E30C9
:107A3800049B1B789DF80E2011461846FFF7E4FEBC
:107A4800059B01330593094B1B781A46059B934206
:107A5800D0DB074BD3E90023134301D0FFF7B0FF76
:107A680000BF07B05DF804FB0C2A0020102A002094
:107A7800182A002000B585B001900B468DF8033018
:107A8800019BDBB21846FFF76FFE0390039B1B7840
:107A9800184604F0AFFD03468DF80B30039B5B7866
:107AA800012B0CBF01230023DBB21A469DF80B30D3
:107AB8009A420CBF012300238DF80A309DF80A3042
:107AC800002B06D0054BD3E90023134301D1FFF760
:107AD80077FF00BF05B05DF804FB00BF182A00203F
:107AE80000B58BB003900B4601928DF80B30019BCB
:107AF800092B01D8072367E004F070FC034683F0E4
:107B08000103DBB2002B09D004F004FC0990099BA7
:107B18000893089B002B01D0089B55E02C4A039B37
:107B280013602C4A9DF80B3013702B4A019B13608D
:107B38001022002129480AF05AFB29494FF0000277
:107B48004FF00003C1E9002331E09DF80B30DB0062
:107B5800039A1344079303238DF8143000238DF8F8
:107B680015309DF816306FF300038DF816309DF828
:107B780016306FF341038DF816309DF816306FF309
:107B880082038DF81630079B9B788DF81530079B7C
:107B98001B78184605AB134A194604F02BFC0990CC
:107BA800099B0693069B002B01D0069B0CE09DF8D1
:107BB8000B305A1E8DF80B20002BC6D10A4A002123
:107BC8000A4800F07DFC034618460BB05DF804FB3C
:107BD8000C2A0020102A0020142A0020202A002025
:107BE800182A00207D7A0200F1790200002703009C
:107BF80000B583B0114B1B68002B04D1104940F22B
:107C0800351006F039FC002301930CE00B4B1A6881
:107C1800019BDB0013441B780121184604F066FC25
:107C2800019B01330193074B1B781A46019B934232
:107C3800ECD30023184603B05DF804FB0C2A00209F
:107C4800A4260300102A002086B003900291019216
:107C580001238DF817309DF81730204A039B1360D5
:107C68001E4A029B53601D4A019B9360039B44F28A
:107C78000102934212D0039B44F20202934220D1A4
:107C8800019B164AD360154BDB681B68134A936146
:107C9800124BDB685B68114AD36112E0019B0F4A03
:107CA80013610E4B1B699B680C4A53610B4B1B6994
:107CB8001B680A4A9361094B1B695B68074AD361D1
:107CC80000BF72B600BF00BF9DF81730DBB2002BB3
:107CD800FAD162B600BF00BF06B07047302A002054
:107CE80000B583B002900091019244F20100714600
:107CF8006A4600F003F803B000BD00BF30B58BB092
:107D080007900691059272B600BFFFF7F5FA00BF1B
:107D1800FFF7B0F80346002BFAD1079B44F20202A2
:107D280093422FD0079B44F20202934269D8079BE3
:107D380044F20102934237D0079B44F20102934276
:107D48005FD8079B012B05D0079B41F201029342A4
:107D58000CD056E0394A3A4BD31ADB081B0443F0DF
:107D6800010338491846FFF713F857E0334A344BF4
:107D7800D31ADB081B0443F0010333491846FFF705
:107D880007F84BE0059B09932C4A2D4BD31ADB08C7
:107D98001B0443F00100099B5B681A46099B1B689A
:107DA8002A49FFF714F839E0059B0893234A244B26
:107DB800D31ADB081B0443F00104089B9D68089B49
:107DC8009B68184602F0D0FC03461846089B5B687F
:107DD8001946089B1B68069A029201930091034674
:107DE8002A461B492046FFF71CF8144A144BD31A9D
:107DF800DB081B0443F0010316491846FEF7C8FFC9
:107E08000CE00E4A0E4BD31ADB081B0443F00103A7
:107E1800069A11491846FEF7C9FF00BF0F4B1B68A9
:107E280003F00103002B00D000BE059A06990798BD
:107E3800FFF70AFF00BF0BB030BD00BF7C23030073
:107E480054230300042703002427030048270300C2
:107E5800642703008C270300A0270300F0ED00E04F
:107E68002DE9F04383B0144801F057F80346002287
:107E78001C461546114BD3E9002314EB020845EBC9
:107E88000309CDE900890E4BD3E90023DDE90001A0
:107E9800904271EB030307D2DDE9002312F18076EB
:107EA80043F10007CDE90067DDE9002310461946D4
:107EB80003B0BDE8F08300BF301E0020582A002020
:107EC800602A002088B001900091019B0793009BD5
:107ED8000693079BD3E90223CDE90423069BD3E944
:107EE8000223CDE90223DDE90423DDE90201904202
:107EF80071EB03032CBF01230023DBB2184608B043
:107F080070470000F0B585B00190019B5B69002BBC
:107F180003D14349A52006F0AFFA00238DF80F30AE
:107F2800404B1B78002B75D0019B002B72D0FFF7BC
:107F380097FF019BD3E90223904271EB030358D3C7
:107F480000238DF80D300DF10D03184600F0D4FB19
:107F5800019B1B69002B06D101994FF0FF324FF0AE
:107F6800FF33C1E902239DF80D30184600F0DAFB13
:107F7800019B5B69019A92691046984700238DF826
:107F88000C3003AB184600F0B7FB019B1B69002BB4
:107F98001AD0019BD3E90223B3F1FF3F08BFB2F126
:107FA800FF3F11D0019BD3E9022301990969002001
:107FB8000C460546161943EB0507019BC3E9026702
:107FC80001238DF80E3002E000238DF80E309DF865
:107FD8000C30184600F0A6FB9DF80E30002B19D087
:107FE800019B1946104802F019FB01238DF80F3048
:107FF80010E0019BD3E90223B3F1FF3F08BFB2F1C0
:10800800FF3F07D0019B1946074802F007FB0123F1
:108018008DF80F309DF80F30184605B0F0BD00BF41
:10802800C4270300542A00202428030030B58BB04D
:10803800019000910D230993009B00221A70019B67
:10804800D3E90223CDE90623FFF70AFFDDE906237A
:10805800141A63EB0105CDE90445DDE90423012A7F
:1080680073F1000318DB049BB3F5350F05D300F05B
:10807800C5FA0246144B134400E0069B03934FF4E1
:108088009603039A0021114800F03AFE0990099BD3
:10809800002B05D1012314E000210C4800F008FF53
:1080A800099B0D2B07D10198FFF72CFF03461A46B1
:1080B800009B1A7004E006494FF4867006F0DCF95C
:1080C800002318460BB030BDFFFFB400301E00205F
:1080D800C427030000B583B0044802F0D9FA019020
:1080E800019B184603B05DF804FB00BF2428030079
:1080F80000B583B0044802F0EDFA0190019B1846E0
:1081080003B05DF804FB00BF2428030000B583B06A
:10811800FFF7E0FF0190019B002B06D001994FF07B
:10812800FF324FF0FF33C1E90223019B002BEFD14F
:1081380000BF00BF03B05DF804FB0000054BD3E9A6
:10814800002312F1807043F10001024BC3E90001E2
:1081580000BF7047582A002010B582B00190124B1A
:108168001B68002B1DD0019800F0D7FE04460021A3
:10817800019800F0C3FE03461946204600F032FA83
:108188000346B3F5960F04D3084940F2411006F0B0
:1081980073F9054B1B681846FFF7B4FE024B002223
:1081A8001A6000BF02B010BD502A0020C427030087
:1081B80000B583B00190FFF753FE02460B46034912
:1081C800C1E9002300BF03B05DF804FB602A00206A
:1081D80000B587B00190FFF78BFF049000238DF85E
:1081E8001730049B002B58D0049BD3E90223B3F12A
:1081F800FF3F08BFB2F1FF3F02D1FFF76BFF54E02A
:108208002E4B1B68002B03D101238DF817301DE07E
:10821800049BD3E90201294B1B68D3E9022390424E
:1082280071EB030312D201238DF81730234B1B681F
:10823800D3E90223B3F1FF3F08BFB2F1FF3F05D0F6
:108248001E4B1B6819461E4802F0E8F99DF81730C6
:10825800002B2BD0FFF73EFF04900DF10F031946BA
:108268000498FFF7E3FE0346002B12D0134B1B685C
:10827800002B02D1019800F04FFC104A049B1360B8
:108288009DF80F3083F00103DBB2002BA3D000BFB1
:108298000FE00A4B00221A609DE7084B1B68002B71
:1082A80006D1019800F04EFC02E094E700BF00E020
:1082B80000BF00BF07B05DF804FB00BF502A0020D4
:1082C8002428030000B587B001902B4A03AB194658
:1082D800104600F020FF049045E0049B1B78022B19
:1082E8002BD0022B2FDC002B02D0012B11D02AE03F
:1082F800049B5B68D3E90223B3F1FF3F08BFB2F1E7
:10830800FF3F22D0049B5B6819461C4802F086F99F
:108318001BE0049B5A681A4B1B689A4203D1184BFE
:1083280000221A6012E0049B5B681946134802F0A9
:10833800E5F903468DF8173008E0FFF7E7FE114B23
:1083480001221A7002E000BF00E000BF0A4A03AB36
:108358001946104600F0F8FE074A03AB19461046C6
:1083680000F0D9FE0490049B002BB6D100BF00BFDB
:1083780007B05DF804FB00BFC02A002024280300D2
:10838800502A0020542A002000B583B0019001989B
:1083980000F081FD0346002B01D0FFF7CFFE00213E
:1083A800019800F096FD0346002B02D00198FFF7D4
:1083B800D3FE0121019800F08CFD0346002B02D06A
:1083C8000198FFF7F5FE0198FFF77CFF0198FFF78A
:1083D800FFFE00BF03B05DF804FB000008B50248CB
:1083E80000F0A8FD00BF08BD301E002000B585B014
:1083F800034600918DF80730114A02AB1946104622
:1084080000F05CFE0390039B002B13D0039B9DF8A8
:1084180007201A70039B009A5A60094A02AB194652
:10842800104600F064FE0346002B01D0FFF7D6FF8C
:10843800002300E00423184605B05DF804FB00BFE4
:10844800C02A002000B583B0164B1B68009316485D
:1084580008235822154900F0FEFD0190019B002BCE
:1084680001D0019B19E06B46114A1946114800F0EA
:10847800D5FA0190019B002B01D0019B0DE0012151
:108488000C4800F0F7FC01230B4A0121094800F0D1
:108498006FFB0A4B01221A70019B184603B05DF866
:1084A80004FB00BF20280300C02A0020682A0020FF
:1084B80091830200301E0020FFFF7F00542A002015
:1084C80000B587B003900B4601928DF80B30039BE3
:1084D800002B04D1164940F25A2005F0CDFF019B2C
:1084E800002B04D1124940F25B2005F0C5FF019B27
:1084F800002B01D1072317E0039B1B6805930599FF
:108508004FF0FF324FF0FF33C1E90223059B019A78
:108518005A619DF80B30012B0CBF01230023DBB2FD
:108528001A46059B1A610023184607B05DF804FB3C
:10853800C4270300F0B589B0039002910192039B10
:10854800002B04D1264940F26B2005F095FF039BD0
:10855800069300238DF817300DF11703184600F025
:10856800CBF8069BD3E90223B3F1FF3F08BFB2F172
:10857800FF3F11D1FFF774FC02460B460299002019
:108588000C460546161943EB0507069BC3E9026727
:1085980001238DF81F3002E000238DF81F309DF86D
:1085A8001730184600F0BEF89DF81F3083F001031D
:1085B800DBB2002B01D000230EE0069B019A9A61E2
:1085C800069B1B69002B02D0069B029A1A6106992A
:1085D8000020FFF70BFF0346184609B0F0BD00BFA7
:1085E800C427030082B001900091019A009BD31A1E
:1085F80023F07F43184602B07047000008B50348CF
:1086080000F08BFC0346184608BD00BF301E002052
:1086180082B0EFF310830093009B019372B600BF02
:10862800019B184602B0704762B600BF00BF704792
:1086380000B585B00190FFF7EBFF0390164B9B68E0
:10864800002B1BD1144B01229A60144BD3F88020C5
:10865800134B1340104A1360104B114AC3F8802083
:108668000E4BD3F884300C4A53600C4B4FF0FF325A
:10867800C3F88420019B00221A7002E0019B0122AA
:108688001A70039B002B01D1FFF7CEFF0023184679
:1086980005B05DF804FB00BFD42A002000E100E02B
:1086A800FC06FFBD00B585B003468DF80730104BBA
:1086B8009B68002B16D09DF80730002B12D1FFF7CE
:1086C800A7FF03900B4A0A4B1B681360094A084B23
:1086D8005B685360064B00229A60039B002B01D114
:1086E800FFF7A2FF0023184605B05DF804FB00BFA2
:1086F800D42A002000E100E000B583B0019000F02A
:108708002BF80346012B03D00549432005F0B4FE9E
:108718000198FFF78DFF00BF03B05DF804FB00BFB1
:108728003028030000B583B003468DF8073000F009
:1087380013F80346012B03D00649512005F09CFE8F
:108748009DF807301846FFF7ADFF00BF03B05DF88E
:1087580004FB00BF3028030084B0EFF305830193C6
:10876800019BC3F308030393039B002B0DD1EFF385
:1087780014830093009B0293029B03F00103002BD8
:108788000CBF01230023DBB200E00123184604B02C
:108798007047000082B003468DF807309DF9073016
:1087A800002B0CDB9DF8073003F01F0205499DF9EB
:1087B80007305B09012000FA02F241F8232000BFCC
:1087C80002B0704700E100E082B003468DF8073040
:1087D8009DF90730002B0DDB9DF8073003F01F02D1
:1087E80006499DF907305B09012000FA02F240337F
:1087F80041F8232000BF02B0704700BF00E100E04D
:1088080082B0034600918DF807309DF90730002BA0
:108818000ADB009BDAB20C499DF907305201D2B24B
:108828000B4483F800230BE0009BDAB207499DF85C
:10883800073003F00F03043B5201D2B20B441A76FF
:1088480000BF02B0704700BF00E100E000ED00E0AB
:1088580000B583B003460A468DF8073013468DF8F5
:1088680006309DF80630012B03D99DF80630032BFE
:108878000BD99DF80630042B03D99DF80630072B39
:1088880003D908496B2005F0F7FD9DF806209DF9EE
:10889800073011461846FFF7B3FF00BF03B05DF875
:1088A80004FB00BF9028030000B583B003468DF891
:1088B80007309DF907301846FFF76CFF00BF03B07B
:1088C8005DF804FB00B585B00190019B002B0AD030
:1088D800074B43F001030393019B9B010293039B06
:1088E8000298984700E000BF05B05DF804FB00BFA0
:1088F800A029030084B0039002910192039B029A7D
:1089080002F5A872019943F8221000BF04B070471D
:1089180082B001900091019B009A02F5A87253F869
:108928002230184602B0704782B001900091019B36
:10893800009AC3F8042300BF02B0704782B00190C8
:108948000091019B009AC3F8082300BF02B070474A
:1089580082B001900B46ADF80230BDF80230019AA2
:1089680013441B68184602B0704784B001900B4648
:10897800ADF80230BDF80230019A134400221A60A3
:10898800BDF80230019A13441B680393039B00BF90
:1089980004B0704782B00190019BD3F804351846A3
:1089A80002B0704700B583B001900091009BB3F509
:1089B800805F04D306494FF4BE7005F05DFD019B4E
:1089C800009AC3F8082500BF03B05DF804FB00BF98
:1089D800C028030082B001900B468DF803309DF843
:1089E8000320019B13441A460123136000BF02B001
:1089F800704782B001900091019B009AC3F844230C
:108A080000BF02B0704782B001900091019B009AAC
:108A1800C3F8482300BF02B07047000000B587B014
:108A2800039002910192039B002B03D133495520F7
:108A380005F022FD029B002B03D13049562005F09A
:108A48001BFD019B002B03D12C49572005F014FD79
:108A5800039B5B7919462A4A019B42F82130039B04
:108A68005B79284ADB0013441B79002B0ED00823BE
:108A78000593254A254BD31ADB081B0443F0020350
:108A880023491846FEF784F9059B32E0039B1A68D0
:108A9800029B1B8819461046FFF784FF039B93F936
:108AA8000420029B9B7819461046FFF7D1FE039BD2
:108AB80093F904301846FFF7F7FE039B5B79114AD8
:108AC800DB00134401221A71039B5B7919460D4A96
:108AD800039B42F83130002305930B4A0B4BD31A02
:108AE800DB081B0443F003030A491846FEF750F954
:108AF800059B184607B05DF804FB00BFF02803008B
:108B0800E02A0020E42A00208C23030054230300D9
:108B1800482903006C29030000B583B00190019B2C
:108B2800002B03D10649872005F0A6FC019B1B6892
:108B380000211846FFF74EFF00BF03B05DF804FBA5
:108B4800F028030000B583B00190019B002B03D1EE
:108B580006498D2005F090FC019B1B6804211846EE
:108B6800FFF738FF00BF03B05DF804FBF0280300EF
:108B780000B587B00390029101928DF80330039BF2
:108B8800002B03D12149962005F076FC4FF4803262
:108B9800029B02FA03F30593029B50339BB29B009E
:108BA800ADF81230019B23F07F430193039B1B68B0
:108BB80005991846FFF7C2FE039B1B6805991846DE
:108BC800FFF721FF039B1B68BDF8122011461846CA
:108BD800FFF7CBFE039B1B68019A02991846FFF723
:108BE80089FE039B1B6805991846FFF702FF9DF84D
:108BF8000330002B05D0039B1B6805991846FFF727
:108C080093FE00BF07B05DF804FB00BFF028030027
:108C180000B585B00390029113468DF80730039B89
:108C2800002B03D10B49A92005F026FC039B1B68E8
:108C380002991846FFF7DDFE9DF80730002B05D096
:108C4800039B1B6802991846FFF76EFE00BF05B02C
:108C58005DF804FBF028030000B583B00190009193
:108C6800019B002B03D10A49B32005F005FC019BA9
:108C78001B6800991846FFF7C6FE019B1B68009900
:108C88001846FFF75BFE00BF03B05DF804FB00BFAA
:108C9800F028030000B583B001900B46ADF8023010
:108CA800019B002B03D10F49BA2005F0E5FB019B7E
:108CB8001B68BDF8022011461846FFF749FE034617
:108CC800002B09D0019B1B68BDF8022011461846ED
:108CD800FFF74BFE012300E00023184603B05DF8C0
:108CE80004FB00BFF028030082B001900091019AB4
:108CF800009BD31A23F07F43184602B07047000048
:108D080000B58BB00390029101920093039B002B56
:108D180003D15749CD2005F0AFFB4FF48032029BB9
:108D280002FA03F30993029B50339BB29B00ADF800
:108D38002230019B23F07F43019309990398FFF7A1
:108D48008BFF039B1B681846FFF724FE0790039BC5
:108D58001B6802991846FFF7DBFD0690039B1B680A
:108D6800079A02991846FFF7C5FD039B1B68BDF8D3
:108D7800222011461846FFF7F8FD07990698FFF7D5
:108D8800B3FF0346012B0AD11020FFF79BFD039B7D
:108D98001B68BDF8222011461846FFF7E6FD039B25
:108DA8001B681846FFF7F6FD079007990198FFF72B
:108DB8009BFF0590039B1B6809991846FFF719FE4E
:108DC800059B012B15D1039B1868019B01331A469B
:108DD8000299FFF78FFD1020FFF774FD039B1B68B6
:108DE8001846FFF7D7FD0246079B934235D00D235F
:108DF80039E0039B1B68019A02991846FFF77AFD30
:108E0800039B1B681846FFF7C5FD0790019B013BB4
:108E180007991846FFF768FF0590009BC3F1FF13F9
:108E280003F57F43059A9A4201D90D231BE0059B60
:108E3800002B12D1039B1868019B01331A46029933
:108E4800FFF758FD039B1B681846FFF7A3FD024672
:108E5800079B934201D00D2305E00122099903984D
:108E6800FFF7D6FE002318460BB05DF804FB00BFE1
:108E7800F028030000B583B001900B468DF803304D
:108E88009DF803301A4602210198FFF7C1FE00BF82
:108E980003B05DF804FB00B583B001904FF4827114
:108EA8000198FFF7F7FE0346184603B05DF804FB88
:108EB80000B583B0019000914FF48032009B02FA14
:108EC80003F319460198FFF7C7FE00BF03B05DF82A
:108ED80004FB00B585B001900091009B50339BB214
:108EE8009B00ADF80E30BDF80E3019460198FFF71B
:108EF800D1FE0346184605B05DF804FB00B583B003
:108F080001900091019B1B6800991846FFF700FD2E
:108F18000346184603B05DF804FB00B583B0019022
:108F2800019B1B681846FFF735FD0346184603B03A
:108F38005DF804FB00B583B00190019B93F9043000
:108F48001846FFF741FC00BF03B05DF804FB0000C2
:108F580008B5044B1B68044A12681046984700BFBE
:108F680008BD00BFE02A0020E42A002086B0019056
:108F78000091019B53E8011F8AB2D889024498895D
:108F8800824228BF121A1889824202BFBFF32F8F6C
:108F9800002307E0C2EA010243E801200028E9D1E2
:108FA8004FF001038DF80F30059002910492029A58
:108FB800009B1A609DF80F30DBB2184606B0704768
:108FC80084B00190019951E8013FC3EA034341E8A5
:108FD8000132002AF7D10392029300BF04B0704710
:108FE80086B001900091019B53E8021F1FFAA1F27D
:108FF800D888824202BFBFF32F8F00230DE0D889A3
:1090080002449889824228BF121AC1EA024243E800
:1090180002200028E8D14FF001038DF80F300590A9
:1090280002910492029A009B1A609DF80F30DBB2FD
:10903800184606B0704784B00190019951E8023F84
:10904800C3EA234341E80232002AF7D1039202938C
:1090580000BF04B0704784B00390029111461A46CD
:109068000B46ADF806301346ADF80430029B002BD2
:1090780001D10E231FE0BDF80630BDF80420B3FB74
:10908800F2F101FB02F29B1A9BB2002B01D00923DB
:1090980011E0039B029A1A60039B00225A60039B0B
:1090A80000229A60039BBDF806209A81039BBDF8B5
:1090B8000420DA810023184604B0704700B585B053
:1090C80001900091009B19460198FFF74FFF034656
:1090D800002B07D0019B1B68009A12881344039346
:1090E800039B00E00023184605B05DF804FB00B5BB
:1090F80083B001900091009B1A88009B5B889A427C
:1091080004D10198FFF75CFF012300E00023184613
:1091180003B05DF804FB00B585B001900091009B99
:1091280019460198FFF75CFF0346002B07D0019B07
:109138001B68009A528813440393039B00E00023A2
:10914800184605B05DF804FB00B583B001900091A6
:10915800009B1A88009B5B889A4204D10198FFF70C
:109168006AFF012300E00023184603B05DF804FB02
:1091780000B585B001900091009B5B099B00019AA6
:109188001A44009B03F01F03012101FA03F3194657
:10919800104600F04DF8039000BF05B05DF804FBE1
:1091A80000B585B001900091009B5B099B00019A76
:1091B8001A44009B03F01F03012101FA03F3DB4368
:1091C8001946104600F064F8039000BF05B05DF83A
:1091D80004FB82B001900091009B5B099B00019AFF
:1091E80013441A68009B03F01F0322FA03F303F0E9
:1091F8000103002B14BF01230023DBB2184602B081
:10920800704710B487B001900091019B009A53E811
:10921800004F104643E8000191F0000FF7D1059484
:1092280004900391059B184607B05DF8044B7047FE
:1092380010B487B001900091019B009A53E8004F49
:1092480044EA020043E8000191F0000FF6D10594CA
:1092580004900391049B184607B05DF8044B7047CF
:1092680010B487B001900091019B009A53E8004F19
:1092780004EA020043E8000191F0000FF6D10594DA
:1092880004900391059B184607B05DF8044B70479E
:1092980010B487B001900091019B009A53E8004FE9
:1092A80004EA020043E8000191F0000FF6D10594AA
:1092B80004900391049B184607B05DF8044B70476F
:1092C80010B487B001900091019B009A53E8004FB9
:1092D80004EB020043E8000191F0000FF6D1059479
:1092E80004900391049B184607B05DF8044B70473F
:1092F80010B487B001900091019B009A53E8004F89
:10930800A4EB020043E8000191F0000FF6D10594A8
:1093180004900391049B184607B05DF8044B70470E
:1093280000B583B0019001210198FFF781FF034642
:10933800184603B05DF804FB00B583B00190002126
:109348000198FFF78DFF0346184603B05DF804FB4C
:1093580000B583B001900B468DF80330019B002BBC
:1093680003D10849E82005F087F8019BDA689DF8E1
:1093780003300199098A01FB03F31344184603B02B
:109388005DF804FBA829030000B583B001900091A3
:10939800019B002B03D10849F52005F06DF8009BCF
:1093A800019AD2689B1A019A128AB3FBF2F3DBB2D4
:1093B800184603B05DF804FBA829030000B585B082
:1093C8000190019B002B01D10E234CE0019B1B68EF
:1093D800002B03D12649FF2005F04EF8019B5B685E
:1093E800002B04D122494FF4807005F045F8019B09
:1093F8009B68002B04D11E4940F2011005F03CF88F
:10940800019BDB68002B04D119494FF4817005F0EA
:1094180033F8019B1B8A002B04D1154940F2031035
:1094280005F02AF8019B9A68019B5B68D31A8DF8AE
:109438000F30019B1B68019A52681A6007E0019B74
:109448001A681368591C11609DF80F201A709DF84E
:109458000F305A1E8DF80F20002BF0D1019B1B688E
:1094680000221A710023184605B05DF804FB00BFFE
:10947800A829030000B585B00190019B002B04D1F9
:109488001F494FF4927004F0F7FF00230393002361
:109498008DF80A300DF10A031846FFF72DF9019BE4
:1094A8001B681A68019B5B689A421FD9019B1B685D
:1094B8001A68013A1A601B681B7819460198FFF769
:1094C80047FF0390019B9A68019B1B681B68D31A8E
:1094D8008DF80B30019B1B681B799DF80B209A4275
:1094E80004D9019B1B689DF80B201A719DF80A305E
:1094F8001846FFF717F9039B184605B05DF804FBFB
:10950800A829030010B584B001900091019B002B9D
:1095180004D1154940F2471004F0AEFF009B002B20
:1095280004D111494FF4A47004F0A6FF009B0393E3
:1095380000238DF80B300DF10B031846FFF7DCF80C
:10954800019B1B681C68621C1A6003990198FFF74D
:109558001BFF034623709DF80B301846FFF7E2F80F
:1095680000BF04B010BD00BFA829030000B583B038
:109578000190019B002B03D10C49312004F07CFFA2
:10958800019B9B68002B0CD0019B5B69019A1069B9
:10959800019A1168019A92689847019B00229A6083
:1095A80000E000BF03B05DF804FB00BF042A03001D
:1095B8000EB400B584B00190019B002B03D118496B
:1095C800422004F059FF019B5B69002B03D1144929
:1095D800432004F051FF019B1B68002B03D1104965
:1095E800442004F049FF019B5B68002B03D10C4920
:1095F800452004F041FF059B002B0AD0002303936C
:1096080006AB039303AB1A460599019800F0B8F925
:1096180000E000BF04B05DF804EB03B0704700BF82
:10962800042A030000B583B001900B468DF803307F
:109638009DF803300A2B03D10D210198FFF7F2FFA3
:10964800019B1A68019B9B68581C01998860134408
:109658009DF803201A70019B9A68019B5B689A42E7
:1096680002D30198FFF782FF00BF03B05DF804FB47
:1096780000B587B0039002910192009300230593EF
:10968800009B03F00103002B24D00BE0029B013365
:109698000293059B013305939DF8133019460398EF
:1096A800FFF7C0FF029B1B788DF813309DF813302D
:1096B800002BEBD106E0019B013B0193202103988D
:1096C800FFF7B0FF019A059B9A422ED9019B002B08
:1096D800F1D12AE0029B002B0BD0029808F0E1FDA3
:1096E800059006E0019B013B019320210398FFF7B9
:1096F80099FF019A059B9A420FD9019B002BF1D142
:109708000BE0029B01330293059B013305939DF8FF
:10971800133019460398FFF785FF029B1B788DF8D5
:1097280013309DF81330002BEBD100BF07B05DF864
:1097380004FB000000B589B00390029101920093E8
:10974800029B07930123069307E0079A019BB2FB4C
:10975800F3F30793069B01330693079A019B9A42FA
:10976800F3D2009A069B9A4201D9009B06930B9B61
:1097780003F00103002B22D10A9B002B1FD00B9B67
:1097880003F00203002B06D0009B002B03D13023EB
:109798008DF8173002E020238DF8173008E00A9B77
:1097A800013B0A939DF8173019460398FFF73AFFD3
:1097B8000A9B002B03D0069A0A9B9A42EFD30123F7
:1097C8000793009B012B03D9009B013B009309E001
:1097D800029A079BB2FBF3F30493049A019B9A4203
:1097E80000D205E0079B019A02FB03F30793E8E721
:1097F800029A079BB2FBF3F30493049B079A02FBBC
:1098080003F3029AD31A0293154A049B13441B7854
:1098180019460398FFF706FF079A019BB2FBF3F37B
:109828000793079B002BE3D10B9B03F00103002B4D
:1098380011D00A9B002B0ED006E00A9B013B0A932D
:1098480020210398FFF7EEFE0A9B002B03D0069A0F
:109858000A9B9A42F1D300BF09B05DF804FB00BF30
:10986800AC2A030000B589B00590049103920293D5
:10987800049B002BB8BF5B4206930123079307E0C4
:10988800039B069A92FBF3F30693079B0133079316
:10989800039B069A9A42F3DA029A079B9A4201D9E5
:1098A800029B07930A9B002B0AD0049B002B04DB26
:1098B8000B9B03F00403002B02D00A9B013B0A9385
:1098C8000B9B03F00203002B02D0029B002B16D047
:1098D8000B9B03F00103002B11D10A9B002B0ED028
:1098E80006E00A9B013B0A9320210598FFF79AFEA0
:1098F8000A9B002B03D0079A0A9B9A42F1D3049B38
:10990800002B07DA049B5B4204932D210598FFF78F
:1099180089FE08E00B9B03F00403002B03D02B21E6
:109928000598FFF77FFE0B9B03F00203002B19D06D
:109938000B9B03F00103002B14D1029B002B11D1C8
:109948000A9B002B0ED006E00A9B013B0A933021AC
:109958000598FFF767FE0A9B002B03D0079A0A9B1E
:109968009A42F1D304990B9B01930A9B0093029BA3
:10997800039A0598FFF7DEFE00BF09B05DF804FB07
:1099880000B58FB0059004910392059B002B04D17C
:10999800AD4940F2522004F06FFD059B5B69002B36
:1099A80004D1A9494FF4157004F066FD059B1B68A6
:1099B800002B04D1A44940F2552004F05DFD059B1D
:1099C8005B68002B04D1A04940F2562004F054FDF6
:1099D800049B002B00F09381049B1B788DF8373093
:1099E800049B013304939DF83730002B00F07E81EF
:1099F8009DF83730252B40F06D8100230A93012311
:109A08000C93049B1B788DF837309DF83730302B3A
:109A18000DD0302B1BDC2B2B11D02D2B17D10A9BF3
:109A280043F001030A93049B0133049312E00A9B59
:109A380043F002030A93049B013304930AE00A9B50
:109A480043F004030A93049B0133049302E00023C8
:109A58000C9300BF0C9B002BD3D1002309939DF8D6
:109A680037302A2B0CD1039B1B68191D039A1160F0
:109A78001B68099A13440993049B013304931AE061
:109A8800049B1B788DF837309DF837302F2B12D96F
:109A98009DF83730392B0ED8049B01330493099A6B
:109AA80013469B0013445B001A469DF83730134455
:109AB800303B0993D3E700230B93049B1B788DF865
:109AC80037309DF837302E2B1DD1049B013304937A
:109AD800049B1B788DF837309DF837302F2B12D91F
:109AE8009DF83730392B0ED8049B013304930B9A19
:109AF80013469B0013445B001A469DF83730134405
:109B0800303B0B93E4E7049B1B788DF837309DF8C6
:109B180037306C2B03D09DF83730682B07D1049B66
:109B280001330493049B1B788DF83730EFE79DF8D9
:109B38003730252B00F0C480252BC0F2C680782B47
:109B480000F3C380582BC0F2C080583B202B00F292
:109B5800BC8001A252F823F0559C0200D39C02005D
:109B6800D39C0200D39C0200D39C0200D39C020029
:109B7800D39C0200D39C0200D39C0200D39C020019
:109B8800D39C0200E59B0200079C0200D39C0200C4
:109B9800D39C0200D39C0200D39C0200079C0200C5
:109BA800D39C0200D39C0200D39C0200D39C0200E9
:109BB800D39C0200D39C0200959C0200D39C020017
:109BC800D39C0200799C0200D39C02002B9C0200CB
:109BD800D39C0200D39C0200559C0200039B1B6887
:109BE800191D039A11601B680C930C9B8DF81F308C
:109BF8009DF81F3019460598FFF714FD66E0039B92
:109C08001B68191D039A11601B680C930A9B01932A
:109C1800099B00930B9B0A220C990598FFF722FEDB
:109C280054E0039B1B68191D039A11601B680C9371
:109C38000C990A9B0193099B00930B9B0A22059898
:109C4800FFF778FD42E000BF542A0300039B1B681E
:109C5800191D039A11601B680C930C990A9B0193B8
:109C6800099B00930B9B10220598FFF763FD2DE0DD
:109C7800039B1B68191D039A11601B6808930A9BB4
:109C8800099A08990598FFF7F3FC1FE0039B1B68E6
:109C9800191D039A11601B680C9330210598FFF772
:109CA800C1FC78210598FFF7BDFC0C9900230193AE
:109CB80008230093082310220598FFF73BFD05E0D1
:109CC80025210598FFF7AEFC00E000BF049B013397
:109CD800049305E09DF8373019460598FFF7A2FC74
:109CE800049B1B78002B7FF477AE00E000BF059B38
:109CF8001B7B002B04D00598FFF738FC00E000BF61
:109D08000FB05DF804FB00BF00B583B00190019867
:109D1800FFF754FB0346184603B05DF804FB00B593
:109D28008BB001900091019B1B8A043B0793009A1A
:109D3800079B1344DA1C079BB2FBF3F38DF81B3027
:109D48000198FFF797FB0590059B002B01D1002395
:109D580038E0059B00221A71059B01225A71079B66
:109D68009AB2059BDA80059B09939DF81B30013B4D
:109D78000493099B019A1A60002308931DE0019837
:109D8800FFF778FB0390039B002B0ED0059B5B79B4
:109D98000133DAB2059B5A71099B039A1A60039B37
:109DA800019A1A60039B099304E0059800F00EF8E5
:109DB800002307E0089B01330893089A049B9A4202
:109DC800DDD3059B18460BB05DF804FB00B58BB0DE
:109DD8000190019B0793079B5B798DF81B30019BD2
:109DE80008939DF81B30013B05930023099305E078
:109DF800089B1B680893099B01330993099A059BE3
:109E08009A42F5D3089B1B680493019B089300238F
:109E180009930BE0089B1B68039308990498FFF7C4
:109E280071FB039B0893099B013309939DF81B3031
:109E3800099A9A42EED300BF00BF0BB05DF804FB4D
:109E480000B585B00190019B0393039B0433012166
:109E58001846FFF735FA00BF05B05DF804FB00B5FA
:109E680087B00190019B0593059B04330121184697
:109E7800FFF73EFA0346039303AB0493049B1B7856
:109E8800002B02D10198FFF7A1FF00BF07B05DF8D2
:109E980004FB000000B591B0039002910192009379
:109EA800039B002B03D14349B62004F0E5FA039B3A
:109EB8000993039B0F93099BDB881A46099B5B79DF
:109EC80002FB03F3043B0893009A089B9A4203D3CE
:109ED8003849C42004F0D0FA099BDB880793009B1B
:109EE8001A1D079BB2FBF3F30E93009B0433079AEA
:109EF800B3FBF2F2079901FB02F29B1A0D93019B47
:109F08001A68009B1344089A9A4203D2089A009B45
:109F1800D31A01E0019B1B680C93019B0C9A1A60F1
:109F280005E00F9B1B680F930E9B013B0E930E9B46
:109F3800002BF6D100230B93079A0D9BD31A0A9393
:109F48000A9A0C9B934228BF13460A932AE0029A66
:109F58000B9B134406930F9A0D9B134404330593EC
:109F68009DF84830002B05D00A9A0599069808F004
:109F780015F904E00A9A0699059808F00FF90023E4
:109F88000D930F9B1B680F930C9A0A9BD31A0C9383
:109F98000B9A0A9B13440B93079A0C9B934228BF76
:109FA80013460A930C9B002BD1D100BF00BF11B000
:109FB8005DF804FBBC2A030000B589B00590049144
:109FC80003920293039B079307AA00230093029B23
:109FD80004990598FFF75EFF079B039A9A4203D0FE
:109FE8000349F62004F048FA00BF09B05DF804FB05
:109FF800BC2A030000B589B005900491039202932E
:10A00800039B079307AA01230093029B04990598D1
:10A01800FFF740FF079B039A9A4204D004494FF484
:10A02800807004F029FA00BF09B05DF804FB00BF96
:10A03800BC2A030082B003468DF807309DF907302B
:10A04800002B0DDB9DF8073003F01F0206499DF930
:10A0580007305B09012000FA02F2603341F823203F
:10A0680000BF02B0704700BF00E100E000B583B058
:10A078000190019B002B03D10649722004F0FCF9E2
:10A08800019B00221A60BFF35F8F00BF00BF03B0BF
:10A098005DF804FB6C2B030041DF704700BF1846D6
:10A0A80000B585B000238DF807300DF10703184679
:10A0B800FEF722FBF1EE103A0393039B23F09F0374
:10A0C8000293029BE1EE103A00BFBFF35F8F00BF1F
:10A0D8002620FFF7AFFF9DF807301846FEF722FB52
:10A0E800039B03F00703002B03D004497D2004F0F1
:10A0F800C3F900BF05B05DF804FB00BFB02B030037
:10A1080008B5064B00221A700548FFF7AFFF05494E
:10A11800054800F027FA0023184608BDF02A002059
:10A12800EC2A0020102C0300F42A002000B583B08C
:10A13800FFF7B6FF07F044FD0346002B0ED0FFF7EC
:10A14800ABFF0190019B002B0BD0019B022B08D089
:10A1580006494FF4B07004F08FF902E020BF40BF09
:10A1680020BF00BF03B05DF804FB00BFB02B0300A5
:10A1780082B00190019B9B68024A127813441846EA
:10A1880002B07047742C030000B583B001900091B1
:10A19800019B002B03D10849832004F06DF9019B32
:10A1A8009B68009A9A4202D2009B013300E0002388
:10A1B800184603B05DF804FB1C2C030000B585B0FD
:10A1C8000190019B1B681B680393019B1B685B68DC
:10A1D8000293029A039B9A4203D3029A039BD31ACF
:10A1E80007E00198FFF7C4FF0246039BD21A029BBF
:10A1F8001344184605B05DF804FB000000B585B0AF
:10A208000190019B002B03D10D49982004F034F9EB
:10A21800019B1B681B680393019B1B685B68029387
:10A2280002990198FFF7B0FF0246039B93420CBFC7
:10A2380001230023DBB2184605B05DF804FB00BF1C
:10A248001C2C030010B588B00190009100230793DF
:10A25800019B002B03D15649A32004F00DF9009B64
:10A26800002B03D15249A42004F006F900238DF8ED
:10A278000F300DF10F031846FEF73EFA0198FFF76D
:10A28800BDFF03468DF81B309DF81B3083F001039A
:10A29800DBB2002B03D1019B1B7C002B7BD1019BE4
:10A2A8001B685B680593019B1B685A68019B1C68C7
:10A2B80011460198FFF768FF034663609DF81B305D
:10A2C800002B0AD0019B1B681A68019B1C68114669
:10A2D8000198FFF759FF03462360019BDB68013BA8
:10A2E800072B38D801A252F823F000BF15A30200AB
:10A2F80025A302005FA3020037A302005FA30200A8
:10A308005FA302005FA3020049A30200019B5A68F1
:10A31800059B1344009A12781A702DE0019B5A6825
:10A32800059B5B001344009A12881A8024E0019B65
:10A338005A68059B9B001344009A12681A601BE038
:10A34800019B5A68059BDB00D118009BD3E90023C9
:10A35800C1E9002310E0019B5B681946019BDB689B
:10A36800059A02FB03F30B441846019BDB681A4667
:10A37800009907F013FF00BF0198FFF71FFF049033
:10A38800019B1B689B68049A9A4207D9019B1B682A
:10A39800049A9A6002E00423079300E000BF9DF846
:10A3A8000F301846FEF7BEF9079B184608B010BDD7
:10A3B8001C2C030010B588B00390029113468DF849
:10A3C800073000230793039B002B03D14549E7205F
:10A3D80004F052F8029B002B03D14249E82004F014
:10A3E8004BF800238DF817300DF117031846FEF7C8
:10A3F80083F9039800F078F8034683F00103DBB291
:10A40800002B63D0039B1B681B6806939DF80730DD
:10A4180083F00103DBB2002B0AD0039B1B681A6888
:10A42800039B1C6811460398FFF7AEFE03462360A2
:10A43800039BDB68013B072B37D801A252F823F0B6
:10A4480069A4020079A40200B3A402008BA402004C
:10A45800B3A40200B3A40200B3A402009DA40200A6
:10A46800039B5A68069B13441A78029B1A702FE0C4
:10A47800039B5A68069B5B0013441A88029B1A8048
:10A4880026E0039B5A68069B9B0013441A68029BAC
:10A498001A601DE0039B5A68069BDB001344D3E94E
:10A4A80000230299C1E9002312E0039B5B68194667
:10A4B800039BDB68069A02FB03F30B441946039BD4
:10A4C800DB681A46029807F069FE01E00523079346
:10A4D8009DF817301846FEF725F9079B184608B06F
:10A4E80010BD00BF1C2C030000B585B00190019B76
:10A4F800002B04D10B4940F22B2003F0BDFF019B38
:10A508001B681B680393019B1B685B680293039A93
:10A51800029B9A420CBF01230023DBB2184605B008
:10A528005DF804FB1C2C030082B00190019B9B6822
:10A5380000229A60019B9B6800221A61019B9B681C
:10A5480000225A61019B9B680022DA60019B9B688C
:10A5580000225A60019B9B6800221A6000BF02B06B
:10A568007047000000B583B001900091019B002B5B
:10A5780003D11049502003F07FFF009B002B03D12B
:10A588000C49512003F078FF019B009A1A60019B47
:10A598001B681A68019B5A60019B5A68019B1B68DB
:10A5A8005B689A4202D1019B00225A6000BF03B047
:10A5B8005DF804FB782C030000B583B00190019B83
:10A5C800002B03D11449632003F056FF019B1B683D
:10A5D800002B03D11049642003F04EFF019B5B68F8
:10A5E800002B14D0019B5B681A46019B1B689B6873
:10A5F80013441A46019B5A60019B5A68019B1B68C9
:10A608005B689A4204D1019B00225A6000E000BFB7
:10A6180003B05DF804FB00BF782C030000B585B0DB
:10A6280001900091019B002B03D118493A2003F0B7
:10A6380023FF009B002B03D114493B2003F01CFF90
:10A64800019B5B6803930FE0019B9B68039A126868
:10A65800009910469847034683F00103DBB2002BAC
:10A6680007D1039B1B680393039B1B68002BEBD14B
:10A6780000E000BF039B1A68009B1A60039B009AC6
:10A688001A6000BF05B05DF804FB00BFF82C03009A
:10A6980000B585B00190019B002B03D10C495120D6
:10A6A80003F0EAFE019B5B681B680393019B5B68F0
:10A6B8001B68002B06D0019B5B681A68019B5B68CE
:10A6C80012681A60039B184605B05DF804FB00BFCA
:10A6D800F82C030000B583B00190019B002B03D137
:10A6E80005495D2003F0C8FE019B5B681B6818469E
:10A6F80003B05DF804FB00BFF82C030000B585B07B
:10A7080001900091019B002B03D11649692003F0A9
:10A71800B3FE009B002B03D112496A2003F0ACFE64
:10A7280000238DF80B30019B5B6803930FE0039BBC
:10A738001B68009A9A4207D1009B1A68039B1A600B
:10A7480001238DF80B3006E0039B1B680393039BE2
:10A758001B68002BEBD19DF80B30184605B05DF84F
:10A7680004FB00BFF82C030000B585B001900198E8
:10A7780000F00EF80390039B002B01D0039B00E030
:10A78800024B184605B05DF804FB00BF582D0300C6
:10A7980086B00190164B0593164B04931FE0049A5C
:10A7A800059BD31ADB10DA0F13445B10DB00059A04
:10A7B80013440393039B1B680293029A019B9A42DA
:10A7C80002D9039B04930AE0029A019B9A4203D29E
:10A7D800039B0833059302E0039B5B6804E0059A3A
:10A7E800049B9A42DBD30023184606B0704700BF8B
:10A7F8005831030080320300BFF34F8F00BF064B70
:10A80800DB6803F4E0620449044B1343CB60BFF3F5
:10A818004F8F00BF00BFFDE700ED00E00400FA0520
:10A8280082B01D4B1B68B3F1FF3F0AD11B4B1B685D
:10A83800DBB201931A4B1B681B0903F00F0300934B
:10A8480005E0154B1B680193164B1B680093019B91
:10A85800062B1DD1009B033B042B17D801A252F8ED
:10A8680023F000BF81A8020085A8020089A8020081
:10A878008DA8020091A8020001230AE0012308E044
:10A88800012306E0012304E0012302E0012300E0A4
:10A898000023184602B0704730010010E00F00F0A6
:10A8A800E80F00F03401001082B0174B1B68DBB2D0
:10A8B8000193164B1B681B0903F00F030093019BC0
:10A8C800062B1DD1009B033B042B17D801A252F87D
:10A8D80023F000BFF1A80200F5A80200F9A80200C1
:10A8E800FDA8020001A9020001230AE0002308E0F4
:10A8F800002306E0002304E0002302E0002300E038
:10A908000023184602B07047E00F00F0E80F00F08F
:10A9180082B01D4B1B68B3F1FF3F0AD11B4B1B686C
:10A92800DBB201931A4B1B681B0903F00F0300935A
:10A9380005E0154B1B680193164B1B680093019BA0
:10A94800062B1DD1009B033B042B17D801A252F8FC
:10A9580023F000BF71A9020075A9020079A90200BD
:10A968007DA9020081A9020001230AE0012308E071
:10A97800012306E0012304E0012302E0012300E0B3
:10A988000023184602B0704730010010E00F00F0B5
:10A99800E80F00F03401001082B0174B1B68DBB2DF
:10A9A8000193164B1B681B0903F00F030093019BCF
:10A9B800062B1DD1009B033B042B17D801A252F88C
:10A9C80023F000BFE1A90200E5A90200E9A90200FD
:10A9D800EDA90200F1A9020001230AE0002308E022
:10A9E800002306E0002304E0002302E0002300E047
:10A9F8000023184602B07047E00F00F0E80F00F09F
:10AA080082B01D4B1B68B3F1FF3F0AD11B4B1B687B
:10AA1800DBB201931A4B1B681B0903F00F03009369
:10AA280005E0154B1B680193164B1B680093019BAF
:10AA3800062B1DD1009B033B042B17D801A252F80B
:10AA480023F000BF61AA020065AA020069AA0200F9
:10AA58006DAA020071AA020001230AE0012308E09E
:10AA6800012306E0012304E0012302E0012300E0C2
:10AA78000023184602B0704730010010E00F00F0C4
:10AA8800E80F00F03401001082B0174B1B68DBB2EE
:10AA98000193164B1B681B0903F00F030093019BDE
:10AAA800062B1DD1009B033B042B17D801A252F89B
:10AAB80023F000BFD1AA0200D5AA0200D9AA020039
:10AAC800DDAA0200E1AA020001230AE0002308E04F
:10AAD800002306E0002304E0002302E0002300E056
:10AAE8000023184602B07047E00F00F0E80F00F0AE
:10AAF80082B0174B1B68DBB20193164B1B681B090E
:10AB080003F00F030093019B062B1DD1009B033B11
:10AB1800042B17D801A252F823F000BF39AB02006A
:10AB28003DAB020041AB020045AB020049AB02005D
:10AB380001230AE0002308E0002306E0002304E0E4
:10AB4800002302E0002300E00023184602B070470B
:10AB5800E00F00F0E80F00F082B01D4B1B68B3F166
:10AB6800FF3F0AD11B4B1B68DBB201931A4B1B68D2
:10AB78001B0903F00F03009305E0154B1B680193B5
:10AB8800164B1B680093019B062B1DD1009B033BB2
:10AB9800042B17D801A252F823F000BFB9AB02006A
:10ABA800BDAB0200C1AB0200C5AB0200C9AB0200DD
:10ABB80000230AE0002308E0012306E0012304E063
:10ABC800012302E0012300E00023184602B0704789
:10ABD80030010010E00F00F0E80F00F03401001021
:10ABE80082B01D4B1B68B3F1FF3F0AD11B4B1B689A
:10ABF800DBB201931A4B1B681B0903F00F03009388
:10AC080005E0154B1B680193164B1B680093019BCD
:10AC1800062B1DD1009B033B042B17D801A252F829
:10AC280023F000BF41AC020045AC020049AC020071
:10AC38004DAC020051AC020001230AE0012308E0F8
:10AC4800012306E0012304E0012302E0012300E0E0
:10AC58000023184602B0704730010010E00F00F0E2
:10AC6800E80F00F03401001082B01D4B1B68B3F1EF
:10AC7800FF3F0AD11B4B1B68DBB201931A4B1B68C1
:10AC88001B0903F00F03009305E0154B1B680193A4
:10AC9800164B1B680093019B062B1DD1009B033BA1
:10ACA800042B17D801A252F823F000BFC9AC020048
:10ACB800CDAC0200D1AC0200D5AC0200D9AC020088
:10ACC80001230AE0012308E0012306E0012304E050
:10ACD800012302E0012300E00023184602B0704778
:10ACE80030010010E00F00F0E80F00F03401001010
:10ACF80082B0154B1B680193144B1B680093019B92
:10AD0800062B1DD1009B033B042B17D801A252F838
:10AD180023F000BF31AD020035AD020039AD0200AD
:10AD28003DAD020041AD020000230AE0002308E027
:10AD3800002306E0012304E0012302E0012300E0F0
:10AD48000023184602B0704730010010340100108B
:10AD580082B0154B1B680193144B1B680093019B31
:10AD6800062B1DD1009B033B042B17D801A252F8D8
:10AD780023F000BF91AD020095AD020099AD02002D
:10AD88009DAD0200A1AD020000230AE0002308E007
:10AD9800002306E0002304E0012302E0012300E091
:10ADA8000023184602B0704730010010340100102B
:10ADB80008B5FFF7CDFF0346002B07D04FF010234F
:10ADC8004FF08042D3F80832C2F8583500BF08BDAA
:10ADD80000BF044BD3F80034002BFAD000BF00BFEB
:10ADE800704700BF00E0014000B583B00190054AFC
:10ADF800019BC2F80435FFF7EBFF00BF03B05DF815
:10AE080004FB00BF00E00140024B034A1A6000BF88
:10AE1800704700BF381E00200090D00308B5FFF728
:10AE2800FFFC0346002B06D0964B1B681B0A964A6C
:10AE380003F01F031360FFF737FD0346002B02D012
:10AE4800924B934A1A60FFF763FD0346002B06D026
:10AE5800904B1B685B0B904A03F007031360FFF7E6
:10AE68009BFD0346002B05D08C4BDB688B4A23F0F7
:10AE78008073D360FFF7C4FD0346002B0ED04FF05C
:10AE880080430022C3F80C214FF080430022C3F80E
:10AE980010214FF080430022C3F83825FFF7F4FD56
:10AEA8000346002B02D07E4B03221A60FFF720FED8
:10AEB8000346002B0BD07B4B05221A607A4B0122EC
:10AEC8001A607A4B00221A60794B3F221A60FFF70A
:10AED80043FE0346002B76D04FF08053754AD3F8D3
:10AEE8000434C2F820354FF08053724AD3F808343E
:10AEF800C2F824354FF080536E4AD3F80C34C2F8A8
:10AF080028354FF080536B4AD3F81034C2F82C35EB
:10AF18004FF08053674AD3F81434C2F830354FF0F5
:10AF28008053644AD3F81834C2F834354FF080534C
:10AF3800604AD3F81C34C2F840354FF080535D4A5C
:10AF4800D3F82034C2F844354FF08053594AD3F827
:10AF58002434C2F848354FF08053564AD3F8283481
:10AF6800C2F84C354FF08053524AD3F82C34C2F80B
:10AF780050354FF080534F4AD3F83034C2F8543527
:10AF88004FF080534B4AD3F83434C2F860354FF051
:10AF98008053484AD3F83834C2F864354FF08053A8
:10AFA800444AD3F83C34C2F868354FF08053414ADC
:10AFB800D3F84034C2F86C354FF080533D4AD3F88B
:10AFC8004434C2F87035FFF70BFE0346002B05D05A
:10AFD800394B1B68394A03F04F031360FFF744FEEF
:10AFE8000346002B0DD04FF08043D3F8003403F014
:10AFF8000103002B05D04FF080436FF00102C3F826
:10B008000024FFF775FE0346002B05D02C4B1B6868
:10B018002B4A43F4806313602A4BD3F88830294ABB
:10B0280043F47003C2F88830BFF34F8F00BFBFF3FB
:10B038006F8F00BFFFF7BCFE4FF01023D3F800322C
:10B04800002B05DB4FF01023D3F80432002B15DA60
:10B058000120FFF7C9FE4FF010231522C3F8002284
:10B06800FFF7B6FE4FF010231522C3F80422FFF7AE
:10B07800AFFE0020FFF7B8FEFFF7BEFBFFF7C4FEE8
:10B0880000BF08BD240300104035014074C00740CC
:10B098000DF0ADBA440200103C050040F0ED00E0B0
:10B0A800A005004010560040885600401856004041
:10B0B8001456004000C0004058020010E40E004042
:10B0C8003C17004000ED00E000B583B00190019B03
:10B0D8001B68184600F0B5F80346002B04D1054953
:10B0E8004FF4F67003F0C8F94FF0A043184603B0C8
:10B0F8005DF804FB8032030000B585B00190084676
:10B1080011461A4603468DF803300B468DF8023077
:10B1180013468DF8013001AB1846FFF7D5FF0390B1
:10B128009DF803209DF802305B001A439DF801301A
:10B138009B001A439DF818301B0242EA03019DF850
:10B148001C301B04019A1943039B02F5E07243F873
:10B15800221000BF05B05DF804FB00B585B0039070
:10B168000023019300230093002301220121039867
:10B17800FFF7C2FF00BF05B05DF804FB00B585B05E
:10B1880003900B468DF80B309DF80B30002201928E
:10B1980000220092002200210398FFF7ADFF00BFB4
:10B1A80005B05DF804FB00B585B0019001AB184609
:10B1B800FFF78AFF0390019B012202FA03F3194665
:10B1C800039800F02AF800BF05B05DF804FB00B54D
:10B1D80085B0019001AB1846FFF776FF0390019BFD
:10B1E800012202FA03F31946039800F020F800BF81
:10B1F80005B05DF804FB00B583B001900091009B99
:10B20800002B03D10198FFF7E2FF02E00198FFF756
:10B21800CAFF00BF03B05DF804FB82B00190009143
:10B22800019B009AC3F8082500BF02B0704782B09E
:10B2380001900091019B009AC3F80C2500BF02B051
:10B24800704784B00190019B5B090293002303932C
:10B25800029B002B03D14FF0FF33039300BF019BE8
:10B2680003F01F030193039A019B22FA03F303F0EF
:10B278000103002B14BF01230023DBB2184604B0DE
:10B288007047000000B583B00190019B032B03D9E0
:10B298000749412003F0F0F8064A019B13441B7844
:10B2A80000211846FFF7A7FF00BF03B05DF804FBB5
:10B2B800B0320300FC32030000B583B00190019B5B
:10B2C800032B03D90749472003F0D6F8064A019B08
:10B2D80013441B7801211846FFF78DFF00BF03B008
:10B2E8005DF804FBB0320300FC32030000B583B004
:10B2F8000023019305E00198FFF7DEFF019B01336E
:10B308000193019B032BF6D900BF00BF03B05DF882
:10B3180004FB000000B583B00023019309E0094A4B
:10B32800019B13441B781846FFF717FF019B013355
:10B338000193019B032BF2D9FFF7D8FF00BF03B09D
:10B348005DF804FBFC32030000B583B000230193D1
:10B358000AE0094A019B13441B7803211846FFF7AA
:10B368000DFF019B01330193019B032BF1D900BF12
:10B3780000BF03B05DF804FB0033030000B583B0E1
:10B388000190019B03F00103002B01D0FFF7C2FFDE
:10B39800019B03F00203002B01D0FFF7D5FF00BF8C
:10B3A80003B05DF804FB000082B003468DF8073057
:10B3B8009DF90730002B13DB9DF8073003F01F02BF
:10B3C80009499DF907305B09012000FA02F2203390
:10B3D80041F82320BFF34F8F00BFBFF36F8F00BF2B
:10B3E80000BF02B0704700BF00E100E0044BD3F893
:10B3F8000034002B14BF01230023DBB2184670472A
:10B408000000014008B506F0DBFB034683F00103AA
:10B41800DBB2002B03D109497B2003F02DF8FFF79D
:10B42800E5FF034683F00103DBB2002B04D000F0F4
:10B4380041FB034B00229A7000BF08BD0C33030088
:10B44800FC2A002000B583B000230193184B1B7819
:10B45800002B02D0852301931CE0154B00229A6033
:10B46800134B00225A60124B00221A61104B002223
:10B47800DA60104800F0E4FA019006F0A1FB0346F8
:10B4880083F00103DBB2002B01D000F0FFFA084B78
:10B4980001221A70FFF7AAFF0346002B02D0044BC3
:10B4A80001229A70019B184603B05DF804FB00BFA7
:10B4B800FC2A002095B5020084B00190019B1B680E
:10B4C8000393039B002B03D0039B1A68019B1A600C
:10B4D800039B184604B0704700B583B0164B1B7821
:10B4E800002B04D1154940F2171002F0C5FF124B8A
:10B4F800DB68002B04D111494FF48C7002F0BCFFBB
:10B5080000238DF807300DF107031846FDF7F4F80E
:10B51800094BDB68013B084AD360074BDB68002B0B
:10B5280001D1FFF76FFF9DF807301846FDF7FAF8CD
:10B5380000BF03B05DF804FBFC2A00200C330300B5
:10B5480000B585B003468DF807309DF80730002B0D
:10B5580002D10C4B039301E00B4B03930398FFF7C5
:10B56800ABFF0290029B002B06D0029B5B689DF804
:10B57800072010469847F1E700BF00BF05B05DF807
:10B5880004FB00BF042B00200C2B002000B583B067
:10B5980003468DF807309DF80730002B05D10A4B7C
:10B5A80001225A700020FFF7CBFF9DF80730012BCE
:10B5B80005D1054B01229A700120FFF7C1FF00BF9A
:10B5C80003B05DF804FB00BFFC2A002000B583B07F
:10B5D80001900091019B002B05D1054B01225A7067
:10B5E8000020FFF7ADFF00BF03B05DF804FB00BF0C
:10B5F800FC2A002000B585B0034600918DF807307D
:10B608009DF80730032B29D0032B35DC002B02D003
:10B61800012B04D030E00020FFF7C6FE2DE0002308
:10B628008DF80F300DF10F031846FDF765F8154B2F
:10B638001B7883F00103DBB2002B01D0FFF702FF78
:10B64800104BDB6801330F4AD3600E4B01229A700E
:10B658009DF80F301846FDF765F80EE0094B1B788A
:10B66800002B04D1084940F2522002F005FF00F0F7
:10B678000DFAFFF731FF00E000BF00BF05B05DF82D
:10B6880004FB00BFFC2A00200C33030000B589B07E
:10B6980001900091009B0793019B1B788DF80C305B
:10B6A800019B5B680493019B9B68DBB28DF81430A7
:10B6B800019BDB680693074A079B52F8233006492B
:10B6C800079A51F8221003AA1046984700BF09B0FC
:10B6D8005DF804FB102B0020142B002000B589B066
:10B6E80001900091009B0793019B1B788DF80C300B
:10B6F800019B5B680493019B9B68DBB28DF8143057
:10B70800019BDB680693074A079B52F823300649DA
:10B71800079A51F8221003AA1046984700BF09B0AB
:10B728005DF804FB102B0020142B002030B58FB0DF
:10B73800039002910192039B1B780C9326490C9B62
:10B74800019A41F82320029B1A6924490C9B41F86D
:10B758002320029B5B7F1946214A0C9B13440A460F
:10B768001A70029B04AC1D460FCD0FC495E80F005C
:10B7780084E80F000C9B089300230D93039B1B7810
:10B788001A46174B9B5C002B0DD0039B181D019B81
:10B79800002B01D0134A00E0002204AB194602F046
:10B7A800C1FA0D9014E0039B1B781A460C4B9B5C66
:10B7B800002B0DD1039B03F10C00019B002B01D042
:10B7C800094A00E0002204AB194601F039FC0D904B
:10B7D8000D9B18460FB030BD102B0020142B0020F5
:10B7E800182B002095B60200E5B6020082B0034689
:10B7F8008DF807309DF90730002B0CDB9DF80730DA
:10B8080003F01F0205499DF907305B09012000FA82
:10B8180002F241F8232000BF02B0704700E100E0C7
:10B8280082B0034600918DF807309DF90730002B50
:10B838000ADB009BDAB20C499DF907305201D2B2FB
:10B848000B4483F800230BE0009BDAB207499DF80C
:10B85800073003F00F03043B5201D2B20B441A76AF
:10B8680000BF02B0704700BF00E100E000ED00E05B
:10B8780082B00190019B1B0B5BB2184602B0704767
:10B8880000B583B003460A468DF8073013468DF895
:10B8980006309DF80630012B03D99DF80630032B9E
:10B8A8000BD99DF80630042B03D99DF80630072BD9
:10B8B80003D908496B2002F0DFFD9DF806209DF9A9
:10B8C800073011461846FFF7ABFF00BF03B05DF81D
:10B8D80004FB00BF6833030000B583B003468DF84E
:10B8E80007309DF907301846FFF780FF00BF03B007
:10B8F8005DF804FB82B003468DF807300F4A9DF9C6
:10B908000730002B00DA1F335B115BB252F823209B
:10B918009DF90730594203F01F0301F01F0158BF7A
:10B928004B425BB222FA03F303F00103002B14BF6E
:10B9380001230023DBB2184602B0704700E100E0A3
:10B9480082B001904FF08042019BC2F8083300BFDB
:10B9580002B0704782B003468DF807309DF8073073
:10B9680003F1804301221A6000BF02B0704784B01F
:10B978000346ADF80630BDF8063003F180430022D7
:10B988001A60BDF8063003F180431B680393039BDC
:10B9980000BF04B0704782B00346ADF80630BDF86A
:10B9A800063003F180431B68002B14BF01230023DA
:10B9B800DBB2184602B0704782B001904FF0804267
:10B9C800019BC2F8183500BF02B070474FF08043A2
:10B9D800D3F818341B0C03F00103002B14BF012308
:10B9E8000023DBB21846704700B583B006238DF8F4
:10B9F80007304FF08040FFF73BFF03461846FFF73C
:10BA080079FF034683F00103DBB2002B13D04FF01C
:10BA18008040FFF72DFF03461A469DF80730194668
:10BA28001046FFF72DFF4FF08040FFF721FF034638
:10BA38001846FFF751FF00BF03B05DF804FB000094
:10BA480000B585B00190019B002B03D10D49A420BE
:10BA580002F012FD002303930B4B1B79002B02D03D
:10BA68008523039308E0084A019B1360064B0122D3
:10BA78001A71054B00225A71039B184605B05DF8F0
:10BA880004FB00BFA03303001C2B002008B5074BA4
:10BA98001B79002B03D10649BD2002F0EDFCFFF70E
:10BAA800A3FF0120FFF788FF00BF08BD1C2B002063
:10BAB800A033030008B50D4B1B79002B03D10C49AB
:10BAC800F72002F0D9FC0220FFF73AFF4FF482700A
